{
  "_format": "hh-sol-artifact-1",
  "contractName": "Groth16Verifier",
  "sourceName": "contracts/Verifier.sol",
  "abi": [
    {
      "inputs": [
        {
          "internalType": "uint256[2]",
          "name": "_pA",
          "type": "uint256[2]"
        },
        {
          "internalType": "uint256[2][2]",
          "name": "_pB",
          "type": "uint256[2][2]"
        },
        {
          "internalType": "uint256[2]",
          "name": "_pC",
          "type": "uint256[2]"
        },
        {
          "internalType": "uint256[2]",
          "name": "_pubSignals",
          "type": "uint256[2]"
        }
      ],
      "name": "verifyProof",
      "outputs": [
        {
          "internalType": "bool",
          "name": "",
          "type": "bool"
        }
      ],
      "stateMutability": "view",
      "type": "function"
    }
  ],
  "bytecode": "0x608060405234801561001057600080fd5b5061063b806100206000396000f3fe608060405234801561001057600080fd5b506004361061002b5760003560e01c8063f5c9d69e14610030575b600080fd5b61004a60048036038101906100459190610566565b610060565b60405161005791906105ea565b60405180910390f35b60006104dc565b7f30644e72e131a029b85045b68181585d2833e84879b9709143e1f593f00000018110610098576000805260206000f35b50565b600060405183815284602082015285604082015260408160608360076107d05a03fa9150816100ce576000805260206000f35b825160408201526020830151606082015260408360808360066107d05a03fa9150816100fe576000805260206000f35b505050505050565b600060808601600087017f1efb70b050ea43dd049e5295f5c832504549ff09d3845b8c6bd2239e06acdfce81527f2332d0be443ce73c9310dbb1ce862226b1cf125ee2d8ff8d89bf5aabba91a57560208201526101a960008801357f1705fcf7cf422517dabc28448c60d6e3b33557cb0cafec3e611fac20787457577f0cb871f389eb05114ae623c87527378b0e6183f97af7eeb13f949d06f9a046938461009b565b6101f960208801357f1ffb83685914f51f43b9ad7e45fbe9174a420e9be369a3cfe202ff1ffa7efc4d7f1c6e278a7e9794d3ec7af45705fc7061a6e9374e041230360e9409e074ff95968461009b565b833582527f30644e72e131a029b85045b68181585d97816a916871ca8d3c208c16d87cfd4760208501357f30644e72e131a029b85045b68181585d97816a916871ca8d3c208c16d87cfd4703066020830152843560408301526020850135606083015260408501356080830152606085013560a08301527f1aa313f1f5a7007a6e59dfcae1b3a195aaaf14b878e32722ae72d93cce76dad560c08301527f03977de31344201f80450ecd076682938a59c90606396718827f09cb95e5284a60e08301527f18f1cea4643a67d4986c573a38632e30c717cf5cbbf2eeb224748fe1a890d1086101008301527f2b26730043e4fd8bf156d759a64b4b90a5184072e648beb01784b99553fb7a0a6101208301527e7dd917b08f6b360ed624aea679b4802035b9e8a73f55eaacd6f4eb11c6ff236101408301527f04ff27ebc113550330146d66749b53d1248677caa2d5e128f6f925ded6d07592610160830152600088015161018083015260206000018801516101a08301527f198e9393920d483a7260bfb731fb5d25f1aa493335a9e71297e485b7aef312c26101c08301527f1800deef121f1e76426a00665e5c4479674322d4f75edadd46debd5cd992f6ed6101e08301527f090689d0585ff075ec9e99ad690c3395bc4b313370b38ef355acdadcd122975b6102008301527f12c85ea5db8c6deb4aab71808dcb408fe3d1e7690c43d37b4ce6cc0166fa7daa610220830152853561024083015260208601356102608301527f2ef2ad31792cde622dad3eea5c5d836ce93c88f0f499da52dc8ff6b521e72a096102808301527f0a44ff0c04e059a534c703a20c76288a11bd1691ab15d81ccecfe897297c16f56102a08301527f27ca64555bd6f5214252b48780103582e858edd192a3024310ad53944d24c4936102c08301527f03b209b1afa614ec33602be4b8c94d804698c83da4a012fdcb15acbd63b1e7056102e08301526020826103008460086107d05a03fa82518116935050505095945050505050565b60405161038081016040526104f46000840135610067565b6105016020840135610067565b61050e818486888a610106565b8060005260206000f35b600080fd5b600080fd5b60008190508260206002028201111561053e5761053d61051d565b5b92915050565b6000819050826040600202820111156105605761055f61051d565b5b92915050565b600080600080610140858703121561058157610580610518565b5b600061058f87828801610522565b94505060406105a087828801610544565b93505060c06105b187828801610522565b9250506101006105c387828801610522565b91505092959194509250565b60008115159050919050565b6105e4816105cf565b82525050565b60006020820190506105ff60008301846105db565b9291505056fea2646970667358221220c14af4974dcf973c218e3e1d65ad11855f33ccf42114137494ecd270f6cf8c4264736f6c63430008180033",
  "linkReferences": {},
  "deployedLinkReferences": {}
}