{
  "_format": "hh-sol-artifact-1",
  "contractName": "TransactionRegistry",
  "sourceName": "packages/contracts/contracts/TransactionRegistry.sol",
  "abi": [
    {
      "inputs": [
        {
          "internalType": "address",
          "name": "_verifierAddress",
          "type": "address"
        }
      ],
      "stateMutability": "nonpayable",
      "type": "constructor"
    },
    {
      "anonymous": false,
      "inputs": [
        {
          "indexed": true,
          "internalType": "bytes32",
          "name": "resultHash",
          "type": "bytes32"
        },
        {
          "indexed": false,
          "internalType": "bytes",
          "name": "metadata",
          "type": "bytes"
        },
        {
          "indexed": false,
          "internalType": "uint256",
          "name": "timestamp",
          "type": "uint256"
        }
      ],
      "name": "AggregateResultStored",
      "type": "event"
    },
    {
      "anonymous": false,
      "inputs": [
        {
          "indexed": true,
          "internalType": "bytes32",
          "name": "root",
          "type": "bytes32"
        },
        {
          "indexed": false,
          "internalType": "uint256",
          "name": "timestamp",
          "type": "uint256"
        }
      ],
      "name": "MerkleRootRegistered",
      "type": "event"
    },
    {
      "anonymous": false,
      "inputs": [
        {
          "indexed": true,
          "internalType": "address",
          "name": "previousOwner",
          "type": "address"
        },
        {
          "indexed": true,
          "internalType": "address",
          "name": "newOwner",
          "type": "address"
        }
      ],
      "name": "OwnershipTransferred",
      "type": "event"
    },
    {
      "anonymous": false,
      "inputs": [
        {
          "indexed": true,
          "internalType": "bytes32",
          "name": "newRoot",
          "type": "bytes32"
        },
        {
          "indexed": true,
          "internalType": "uint256",
          "name": "nullifierHash",
          "type": "uint256"
        }
      ],
      "name": "TransactionApplied",
      "type": "event"
    },
    {
      "inputs": [
        {
          "internalType": "uint256[2]",
          "name": "a",
          "type": "uint256[2]"
        },
        {
          "internalType": "uint256[2][2]",
          "name": "b",
          "type": "uint256[2][2]"
        },
        {
          "internalType": "uint256[2]",
          "name": "c",
          "type": "uint256[2]"
        },
        {
          "internalType": "uint256[3]",
          "name": "input",
          "type": "uint256[3]"
        }
      ],
      "name": "applyTransaction",
      "outputs": [],
      "stateMutability": "nonpayable",
      "type": "function"
    },
    {
      "inputs": [
        {
          "internalType": "bytes",
          "name": "proofBytes",
          "type": "bytes"
        },
        {
          "internalType": "bytes",
          "name": "pubData",
          "type": "bytes"
        }
      ],
      "name": "applyTransactionBytes",
      "outputs": [],
      "stateMutability": "nonpayable",
      "type": "function"
    },
    {
      "inputs": [],
      "name": "currentMerkleRoot",
      "outputs": [
        {
          "internalType": "bytes32",
          "name": "",
          "type": "bytes32"
        }
      ],
      "stateMutability": "view",
      "type": "function"
    },
    {
      "inputs": [
        {
          "internalType": "uint256",
          "name": "idx",
          "type": "uint256"
        }
      ],
      "name": "merkleRootAt",
      "outputs": [
        {
          "internalType": "bytes32",
          "name": "",
          "type": "bytes32"
        }
      ],
      "stateMutability": "view",
      "type": "function"
    },
    {
      "inputs": [],
      "name": "merkleRootCount",
      "outputs": [
        {
          "internalType": "uint256",
          "name": "",
          "type": "uint256"
        }
      ],
      "stateMutability": "view",
      "type": "function"
    },
    {
      "inputs": [
        {
          "internalType": "uint256",
          "name": "",
          "type": "uint256"
        }
      ],
      "name": "merkleRoots",
      "outputs": [
        {
          "internalType": "bytes32",
          "name": "",
          "type": "bytes32"
        }
      ],
      "stateMutability": "view",
      "type": "function"
    },
    {
      "inputs": [
        {
          "internalType": "uint256",
          "name": "",
          "type": "uint256"
        }
      ],
      "name": "nullifiersUsed",
      "outputs": [
        {
          "internalType": "bool",
          "name": "",
          "type": "bool"
        }
      ],
      "stateMutability": "view",
      "type": "function"
    },
    {
      "inputs": [],
      "name": "owner",
      "outputs": [
        {
          "internalType": "address",
          "name": "",
          "type": "address"
        }
      ],
      "stateMutability": "view",
      "type": "function"
    },
    {
      "inputs": [
        {
          "internalType": "bytes32",
          "name": "_root",
          "type": "bytes32"
        }
      ],
      "name": "registerRoot",
      "outputs": [],
      "stateMutability": "nonpayable",
      "type": "function"
    },
    {
      "inputs": [],
      "name": "renounceOwnership",
      "outputs": [],
      "stateMutability": "nonpayable",
      "type": "function"
    },
    {
      "inputs": [
        {
          "internalType": "bytes32",
          "name": "resultHash",
          "type": "bytes32"
        },
        {
          "internalType": "bytes",
          "name": "metadata",
          "type": "bytes"
        }
      ],
      "name": "storeAggregateResult",
      "outputs": [],
      "stateMutability": "nonpayable",
      "type": "function"
    },
    {
      "inputs": [
        {
          "internalType": "address",
          "name": "newOwner",
          "type": "address"
        }
      ],
      "name": "transferOwnership",
      "outputs": [],
      "stateMutability": "nonpayable",
      "type": "function"
    },
    {
      "inputs": [],
      "name": "verifier",
      "outputs": [
        {
          "internalType": "contract IVerifier",
          "name": "",
          "type": "address"
        }
      ],
      "stateMutability": "view",
      "type": "function"
    }
  ],
  "bytecode": "0x60a06040523480156200001157600080fd5b50604051620019ce380380620019ce8339818101604052810190620000379190620001eb565b620000576200004b6200010860201b60201c565b6200011060201b60201c565b600073ffffffffffffffffffffffffffffffffffffffff168173ffffffffffffffffffffffffffffffffffffffff161415620000ca576040517f08c379a0000000000000000000000000000000000000000000000000000000008152600401620000c19062000259565b60405180910390fd5b8073ffffffffffffffffffffffffffffffffffffffff1660808173ffffffffffffffffffffffffffffffffffffffff1660601b8152505050620002da565b600033905090565b60008060009054906101000a900473ffffffffffffffffffffffffffffffffffffffff169050816000806101000a81548173ffffffffffffffffffffffffffffffffffffffff021916908373ffffffffffffffffffffffffffffffffffffffff1602179055508173ffffffffffffffffffffffffffffffffffffffff168173ffffffffffffffffffffffffffffffffffffffff167f8be0079c531659141344cd1fd0a4f28419497f9722a3daafe3b4186f6b6457e060405160405180910390a35050565b600081519050620001e581620002c0565b92915050565b600060208284031215620001fe57600080fd5b60006200020e84828501620001d4565b91505092915050565b6000620002266018836200027b565b91507f496e76616c6964207665726966696572206164647265737300000000000000006000830152602082019050919050565b60006020820190508181036000830152620002748162000217565b9050919050565b600082825260208201905092915050565b60006200029982620002a0565b9050919050565b600073ffffffffffffffffffffffffffffffffffffffff82169050919050565b620002cb816200028c565b8114620002d757600080fd5b50565b60805160601c6116ce62000300600039600081816103e3015261075601526116ce6000f3fe608060405234801561001057600080fd5b50600436106100cf5760003560e01c806371c5ecb11161008c5780639658fac2116100665780639658fac2146101d85780639ea9719014610208578063f2393bcf14610226578063f2fde38b14610256576100cf565b806371c5ecb11461016e5780638da5cb5b1461019e57806395d07edb146101bc576100cf565b80631ff76da9146100d45780632916af8d146100f05780632b7ac3f31461010c57806338c1c42f1461012a578063666eb3fc14610146578063715018a614610164575b600080fd5b6100ee60048036038101906100e99190610ce1565b610272565b005b61010a60048036038101906101059190610e11565b610398565b005b6101146103e1565b604051610121919061134a565b60405180910390f35b610144600480360381019061013f9190610e69565b610405565b005b61014e610448565b60405161015b9190611405565b60405180910390f35b61016c610455565b005b61018860048036038101906101839190610ede565b610469565b60405161019591906112fd565b60405180910390f35b6101a661048d565b6040516101b39190611280565b60405180910390f35b6101d660048036038101906101d19190610de8565b6104b6565b005b6101f260048036038101906101ed9190610ede565b610529565b6040516101ff91906112fd565b60405180910390f35b6102106105be565b60405161021d91906112fd565b60405180910390f35b610240600480360381019061023b9190610ede565b6105c4565b60405161024d91906112e2565b60405180910390f35b610270600480360381019061026b9190610cb8565b6105e4565b005b610392846002806020026040519081016040528092919082600260200280828437600081840152601f19601f82011690508083019250505050505084600280602002604051908101604052809291906000905b82821015610319578382604002016002806020026040519081016040528092919082600260200280828437600081840152601f19601f820116905080830192505050505050815260200190600101906102c5565b50505050846002806020026040519081016040528092919082600260200280828437600081840152601f19601f820116905080830192505050505050846003806020026040519081016040528092919082600360200280828437600081840152601f19601f820116905080830192505050505050610668565b50505050565b6103a06108d8565b827fd1bfe49375758637da9655e089ce8b49043c193cb1cdd2c7646e0a4f50f2df238383426040516103d493929190611318565b60405180910390a2505050565b7f000000000000000000000000000000000000000000000000000000000000000081565b600080600086868101906104199190610d46565b925092509250600085858101906104309190610d96565b905061043e84848484610668565b5050505050505050565b6000600280549050905090565b61045d6108d8565b6104676000610956565b565b6002818154811061047957600080fd5b906000526020600020016000915090505481565b60008060009054906101000a900473ffffffffffffffffffffffffffffffffffffffff16905090565b6104be6108d8565b806001819055506002819080600181540180825580915050600190039060005260206000200160009091909190915055807feb7e96ba82cae6fc90d20d03f0bdf85ca1a24f4976ab9f9b38b8305cd4172ecd4260405161051e9190611405565b60405180910390a250565b60006002805490508210610572576040517f08c379a0000000000000000000000000000000000000000000000000000000008152600401610569906113e5565b60405180910390fd5b600282815481106105ac577f4e487b7100000000000000000000000000000000000000000000000000000000600052603260045260246000fd5b90600052602060002001549050919050565b60015481565b60036020528060005260406000206000915054906101000a900460ff1681565b6105ec6108d8565b600073ffffffffffffffffffffffffffffffffffffffff168173ffffffffffffffffffffffffffffffffffffffff16141561065c576040517f08c379a000000000000000000000000000000000000000000000000000000000815260040161065390611365565b60405180910390fd5b61066581610956565b50565b6000816000600381106106a4577f4e487b7100000000000000000000000000000000000000000000000000000000600052603260045260246000fd5b602002015160001b90506000826001600381106106ea577f4e487b7100000000000000000000000000000000000000000000000000000000600052603260045260246000fd5b602002015190506003600082815260200190815260200160002060009054906101000a900460ff1615610752576040517f08c379a0000000000000000000000000000000000000000000000000000000008152600401610749906113a5565b60405180910390fd5b60007f000000000000000000000000000000000000000000000000000000000000000073ffffffffffffffffffffffffffffffffffffffff166311479fea888888886040518563ffffffff1660e01b81526004016107b3949392919061129b565b60206040518083038186803b1580156107cb57600080fd5b505afa1580156107df573d6000803e3d6000fd5b505050506040513d601f19601f820116820180604052508101906108039190610dbf565b905080610845576040517f08c379a000000000000000000000000000000000000000000000000000000000815260040161083c90611385565b60405180910390fd5b60016003600084815260200190815260200160002060006101000a81548160ff02191690831515021790555082600181905550600283908060018154018082558091505060019003906000526020600020016000909190919091505581837f28c46a25ddc870539b3632005149769bca36c4c76e5caa38c25b6a4a39e9e22060405160405180910390a350505050505050565b6108e0610a1a565b73ffffffffffffffffffffffffffffffffffffffff166108fe61048d565b73ffffffffffffffffffffffffffffffffffffffff1614610954576040517f08c379a000000000000000000000000000000000000000000000000000000000815260040161094b906113c5565b60405180910390fd5b565b60008060009054906101000a900473ffffffffffffffffffffffffffffffffffffffff169050816000806101000a81548173ffffffffffffffffffffffffffffffffffffffff021916908373ffffffffffffffffffffffffffffffffffffffff1602179055508173ffffffffffffffffffffffffffffffffffffffff168173ffffffffffffffffffffffffffffffffffffffff167f8be0079c531659141344cd1fd0a4f28419497f9722a3daafe3b4186f6b6457e060405160405180910390a35050565b600033905090565b6000610a35610a3084611451565b611420565b90508082856040860282011115610a4b57600080fd5b60005b85811015610a7b5781610a618882610bc3565b845260208401935060408301925050600181019050610a4e565b5050509392505050565b6000610a98610a9384611477565b611420565b90508082856020860282011115610aae57600080fd5b60005b85811015610ade5781610ac48882610ca3565b845260208401935060208301925050600181019050610ab1565b5050509392505050565b6000610afb610af68461149d565b611420565b90508082856020860282011115610b1157600080fd5b60005b85811015610b415781610b278882610ca3565b845260208401935060208301925050600181019050610b14565b5050509392505050565b600081359050610b5a8161163c565b92915050565b600081905082604060020282011115610b7857600080fd5b92915050565b600082601f830112610b8f57600080fd5b6002610b9c848285610a22565b91505092915050565b600081905082602060020282011115610bbd57600080fd5b92915050565b600082601f830112610bd457600080fd5b6002610be1848285610a85565b91505092915050565b600081905082602060030282011115610c0257600080fd5b92915050565b600082601f830112610c1957600080fd5b6003610c26848285610ae8565b91505092915050565b600081519050610c3e81611653565b92915050565b600081359050610c538161166a565b92915050565b60008083601f840112610c6b57600080fd5b8235905067ffffffffffffffff811115610c8457600080fd5b602083019150836001820283011115610c9c57600080fd5b9250929050565b600081359050610cb281611681565b92915050565b600060208284031215610cca57600080fd5b6000610cd884828501610b4b565b91505092915050565b6000806000806101608587031215610cf857600080fd5b6000610d0687828801610ba5565b9450506040610d1787828801610b60565b93505060c0610d2887828801610ba5565b925050610100610d3a87828801610bea565b91505092959194509250565b60008060006101008486031215610d5c57600080fd5b6000610d6a86828701610bc3565b9350506040610d7b86828701610b7e565b92505060c0610d8c86828701610bc3565b9150509250925092565b600060608284031215610da857600080fd5b6000610db684828501610c08565b91505092915050565b600060208284031215610dd157600080fd5b6000610ddf84828501610c2f565b91505092915050565b600060208284031215610dfa57600080fd5b6000610e0884828501610c44565b91505092915050565b600080600060408486031215610e2657600080fd5b6000610e3486828701610c44565b935050602084013567ffffffffffffffff811115610e5157600080fd5b610e5d86828701610c59565b92509250509250925092565b60008060008060408587031215610e7f57600080fd5b600085013567ffffffffffffffff811115610e9957600080fd5b610ea587828801610c59565b9450945050602085013567ffffffffffffffff811115610ec457600080fd5b610ed087828801610c59565b925092505092959194509250565b600060208284031215610ef057600080fd5b6000610efe84828501610ca3565b91505092915050565b6000610f138383610f9d565b60408301905092915050565b6000610f2b8383611262565b60208301905092915050565b610f4081611577565b82525050565b610f4f816114e1565b610f598184611529565b9250610f64826114c3565b8060005b83811015610f95578151610f7c8782610f07565b9650610f8783611502565b925050600181019050610f68565b505050505050565b610fa6816114ec565b610fb08184611534565b9250610fbb826114cd565b8060005b83811015610fec578151610fd38782610f1f565b9650610fde8361150f565b925050600181019050610fbf565b505050505050565b610ffd816114ec565b611007818461153f565b9250611012826114cd565b8060005b8381101561104357815161102a8782610f1f565b96506110358361150f565b925050600181019050611016565b505050505050565b611054816114f7565b61105e818461154a565b9250611069826114d7565b8060005b8381101561109a5781516110818782610f1f565b965061108c8361151c565b92505060018101905061106d565b505050505050565b6110ab81611589565b82525050565b6110ba81611595565b82525050565b60006110cc8385611555565b93506110d98385846115ed565b6110e28361162b565b840190509392505050565b6110f6816115c9565b82525050565b6000611109602683611566565b91507f4f776e61626c653a206e6577206f776e657220697320746865207a65726f206160008301527f64647265737300000000000000000000000000000000000000000000000000006020830152604082019050919050565b600061116f601083611566565b91507f496e76616c6964205a4b2070726f6f66000000000000000000000000000000006000830152602082019050919050565b60006111af601783611566565b91507f4e756c6c696669657220616c7265616479207370656e740000000000000000006000830152602082019050919050565b60006111ef602083611566565b91507f4f776e61626c653a2063616c6c6572206973206e6f7420746865206f776e65726000830152602082019050919050565b600061122f601383611566565b91507f496e646578206f7574206f6620626f756e6473000000000000000000000000006000830152602082019050919050565b61126b816115bf565b82525050565b61127a816115bf565b82525050565b60006020820190506112956000830184610f37565b92915050565b6000610160820190506112b16000830187610ff4565b6112be6040830186610f46565b6112cb60c0830185610ff4565b6112d961010083018461104b565b95945050505050565b60006020820190506112f760008301846110a2565b92915050565b600060208201905061131260008301846110b1565b92915050565b600060408201905081810360008301526113338185876110c0565b90506113426020830184611271565b949350505050565b600060208201905061135f60008301846110ed565b92915050565b6000602082019050818103600083015261137e816110fc565b9050919050565b6000602082019050818103600083015261139e81611162565b9050919050565b600060208201905081810360008301526113be816111a2565b9050919050565b600060208201905081810360008301526113de816111e2565b9050919050565b600060208201905081810360008301526113fe81611222565b9050919050565b600060208201905061141a6000830184611271565b92915050565b6000604051905081810181811067ffffffffffffffff82111715611447576114466115fc565b5b8060405250919050565b600067ffffffffffffffff82111561146c5761146b6115fc565b5b602082029050919050565b600067ffffffffffffffff821115611492576114916115fc565b5b602082029050919050565b600067ffffffffffffffff8211156114b8576114b76115fc565b5b602082029050919050565b6000819050919050565b6000819050919050565b6000819050919050565b600060029050919050565b600060029050919050565b600060039050919050565b6000602082019050919050565b6000602082019050919050565b6000602082019050919050565b600081905092915050565b600081905092915050565b600081905092915050565b600081905092915050565b600082825260208201905092915050565b600082825260208201905092915050565b60006115828261159f565b9050919050565b60008115159050919050565b6000819050919050565b600073ffffffffffffffffffffffffffffffffffffffff82169050919050565b6000819050919050565b60006115d4826115db565b9050919050565b60006115e68261159f565b9050919050565b82818337600083830152505050565b7f4e487b7100000000000000000000000000000000000000000000000000000000600052604160045260246000fd5b6000601f19601f8301169050919050565b61164581611577565b811461165057600080fd5b50565b61165c81611589565b811461166757600080fd5b50565b61167381611595565b811461167e57600080fd5b50565b61168a816115bf565b811461169557600080fd5b5056fea2646970667358221220b005e38d3a5266463f453ad72b20010ee3bbca15f94e8854a80cede63e5e2d8564736f6c63430008000033",
  "linkReferences": {},
  "deployedLinkReferences": {}
}