{
  "_format": "hh-sol-artifact-1",
  "contractName": "TransactionRegistry",
  "sourceName": "contracts/TransactionRegistry.sol",
  "abi": [
    {
      "inputs": [
        {
          "internalType": "address",
          "name": "_verifierAddress",
          "type": "address"
        }
      ],
      "stateMutability": "nonpayable",
      "type": "constructor"
    },
    {
      "inputs": [
        {
          "internalType": "address",
          "name": "owner",
          "type": "address"
        }
      ],
      "name": "OwnableInvalidOwner",
      "type": "error"
    },
    {
      "inputs": [
        {
          "internalType": "address",
          "name": "account",
          "type": "address"
        }
      ],
      "name": "OwnableUnauthorizedAccount",
      "type": "error"
    },
    {
      "anonymous": false,
      "inputs": [
        {
          "indexed": true,
          "internalType": "bytes32",
          "name": "resultHash",
          "type": "bytes32"
        },
        {
          "indexed": false,
          "internalType": "bytes",
          "name": "metadata",
          "type": "bytes"
        },
        {
          "indexed": false,
          "internalType": "uint256",
          "name": "timestamp",
          "type": "uint256"
        }
      ],
      "name": "AggregateResultStored",
      "type": "event"
    },
    {
      "anonymous": false,
      "inputs": [
        {
          "indexed": true,
          "internalType": "bytes32",
          "name": "commitment",
          "type": "bytes32"
        },
        {
          "indexed": false,
          "internalType": "uint256",
          "name": "leafIndex",
          "type": "uint256"
        },
        {
          "indexed": false,
          "internalType": "uint256",
          "name": "timestamp",
          "type": "uint256"
        }
      ],
      "name": "Deposit",
      "type": "event"
    },
    {
      "anonymous": false,
      "inputs": [
        {
          "indexed": true,
          "internalType": "bytes32",
          "name": "root",
          "type": "bytes32"
        },
        {
          "indexed": false,
          "internalType": "uint256",
          "name": "timestamp",
          "type": "uint256"
        }
      ],
      "name": "MerkleRootRegistered",
      "type": "event"
    },
    {
      "anonymous": false,
      "inputs": [
        {
          "indexed": true,
          "internalType": "address",
          "name": "previousOwner",
          "type": "address"
        },
        {
          "indexed": true,
          "internalType": "address",
          "name": "newOwner",
          "type": "address"
        }
      ],
      "name": "OwnershipTransferred",
      "type": "event"
    },
    {
      "anonymous": false,
      "inputs": [
        {
          "indexed": true,
          "internalType": "bytes32",
          "name": "oldRoot",
          "type": "bytes32"
        },
        {
          "indexed": true,
          "internalType": "bytes32",
          "name": "newRoot",
          "type": "bytes32"
        },
        {
          "indexed": false,
          "internalType": "uint256",
          "name": "timestamp",
          "type": "uint256"
        }
      ],
      "name": "RootUpdated",
      "type": "event"
    },
    {
      "anonymous": false,
      "inputs": [
        {
          "indexed": true,
          "internalType": "bytes32",
          "name": "newRoot",
          "type": "bytes32"
        },
        {
          "indexed": true,
          "internalType": "uint256",
          "name": "nullifierHash",
          "type": "uint256"
        }
      ],
      "name": "TransactionApplied",
      "type": "event"
    },
    {
      "inputs": [],
      "name": "MAX_LEAVES",
      "outputs": [
        {
          "internalType": "uint256",
          "name": "",
          "type": "uint256"
        }
      ],
      "stateMutability": "view",
      "type": "function"
    },
    {
      "inputs": [],
      "name": "TREE_DEPTH",
      "outputs": [
        {
          "internalType": "uint256",
          "name": "",
          "type": "uint256"
        }
      ],
      "stateMutability": "view",
      "type": "function"
    },
    {
      "inputs": [
        {
          "internalType": "uint256[2]",
          "name": "a",
          "type": "uint256[2]"
        },
        {
          "internalType": "uint256[2][2]",
          "name": "b",
          "type": "uint256[2][2]"
        },
        {
          "internalType": "uint256[2]",
          "name": "c",
          "type": "uint256[2]"
        },
        {
          "internalType": "uint256[3]",
          "name": "input",
          "type": "uint256[3]"
        }
      ],
      "name": "applyTransaction",
      "outputs": [],
      "stateMutability": "nonpayable",
      "type": "function"
    },
    {
      "inputs": [
        {
          "internalType": "bytes",
          "name": "proofBytes",
          "type": "bytes"
        },
        {
          "internalType": "bytes",
          "name": "pubData",
          "type": "bytes"
        }
      ],
      "name": "applyTransactionBytes",
      "outputs": [],
      "stateMutability": "nonpayable",
      "type": "function"
    },
    {
      "inputs": [
        {
          "internalType": "bytes32",
          "name": "",
          "type": "bytes32"
        }
      ],
      "name": "commitments",
      "outputs": [
        {
          "internalType": "bool",
          "name": "",
          "type": "bool"
        }
      ],
      "stateMutability": "view",
      "type": "function"
    },
    {
      "inputs": [],
      "name": "currentMerkleRoot",
      "outputs": [
        {
          "internalType": "bytes32",
          "name": "",
          "type": "bytes32"
        }
      ],
      "stateMutability": "view",
      "type": "function"
    },
    {
      "inputs": [
        {
          "internalType": "bytes32",
          "name": "commitment",
          "type": "bytes32"
        }
      ],
      "name": "deposit",
      "outputs": [],
      "stateMutability": "payable",
      "type": "function"
    },
    {
      "inputs": [],
      "name": "getBalance",
      "outputs": [
        {
          "internalType": "uint256",
          "name": "",
          "type": "uint256"
        }
      ],
      "stateMutability": "view",
      "type": "function"
    },
    {
      "inputs": [],
      "name": "getRootHistoryLength",
      "outputs": [
        {
          "internalType": "uint256",
          "name": "",
          "type": "uint256"
        }
      ],
      "stateMutability": "view",
      "type": "function"
    },
    {
      "inputs": [
        {
          "internalType": "bytes32",
          "name": "root",
          "type": "bytes32"
        }
      ],
      "name": "isKnownRoot",
      "outputs": [
        {
          "internalType": "bool",
          "name": "",
          "type": "bool"
        }
      ],
      "stateMutability": "view",
      "type": "function"
    },
    {
      "inputs": [
        {
          "internalType": "uint256",
          "name": "idx",
          "type": "uint256"
        }
      ],
      "name": "merkleRootAt",
      "outputs": [
        {
          "internalType": "bytes32",
          "name": "",
          "type": "bytes32"
        }
      ],
      "stateMutability": "view",
      "type": "function"
    },
    {
      "inputs": [],
      "name": "merkleRootCount",
      "outputs": [
        {
          "internalType": "uint256",
          "name": "",
          "type": "uint256"
        }
      ],
      "stateMutability": "view",
      "type": "function"
    },
    {
      "inputs": [
        {
          "internalType": "uint256",
          "name": "",
          "type": "uint256"
        }
      ],
      "name": "merkleRoots",
      "outputs": [
        {
          "internalType": "bytes32",
          "name": "",
          "type": "bytes32"
        }
      ],
      "stateMutability": "view",
      "type": "function"
    },
    {
      "inputs": [],
      "name": "nextLeafIndex",
      "outputs": [
        {
          "internalType": "uint256",
          "name": "",
          "type": "uint256"
        }
      ],
      "stateMutability": "view",
      "type": "function"
    },
    {
      "inputs": [
        {
          "internalType": "uint256",
          "name": "",
          "type": "uint256"
        }
      ],
      "name": "nullifiersUsed",
      "outputs": [
        {
          "internalType": "bool",
          "name": "",
          "type": "bool"
        }
      ],
      "stateMutability": "view",
      "type": "function"
    },
    {
      "inputs": [],
      "name": "owner",
      "outputs": [
        {
          "internalType": "address",
          "name": "",
          "type": "address"
        }
      ],
      "stateMutability": "view",
      "type": "function"
    },
    {
      "inputs": [
        {
          "internalType": "bytes32",
          "name": "_root",
          "type": "bytes32"
        }
      ],
      "name": "registerRoot",
      "outputs": [],
      "stateMutability": "nonpayable",
      "type": "function"
    },
    {
      "inputs": [],
      "name": "renounceOwnership",
      "outputs": [],
      "stateMutability": "nonpayable",
      "type": "function"
    },
    {
      "inputs": [
        {
          "internalType": "bytes32",
          "name": "resultHash",
          "type": "bytes32"
        },
        {
          "internalType": "bytes",
          "name": "metadata",
          "type": "bytes"
        }
      ],
      "name": "storeAggregateResult",
      "outputs": [],
      "stateMutability": "nonpayable",
      "type": "function"
    },
    {
      "inputs": [
        {
          "internalType": "address",
          "name": "newOwner",
          "type": "address"
        }
      ],
      "name": "transferOwnership",
      "outputs": [],
      "stateMutability": "nonpayable",
      "type": "function"
    },
    {
      "inputs": [],
      "name": "verifier",
      "outputs": [
        {
          "internalType": "contract IVerifier",
          "name": "",
          "type": "address"
        }
      ],
      "stateMutability": "view",
      "type": "function"
    }
  ],
  "bytecode": "0x60a06040523480156200001157600080fd5b506040516200235a3803806200235a8339818101604052810190620000379190620002e6565b62000047620001b060201b60201c565b600073ffffffffffffffffffffffffffffffffffffffff168173ffffffffffffffffffffffffffffffffffffffff1603620000bc5760006040517f1e4fbdf7000000000000000000000000000000000000000000000000000000008152600401620000b3919062000329565b60405180910390fd5b620000cd81620001b860201b60201c565b50600073ffffffffffffffffffffffffffffffffffffffff168173ffffffffffffffffffffffffffffffffffffffff160362000140576040517f08c379a00000000000000000000000000000000000000000000000000000000081526004016200013790620003a7565b60405180910390fd5b8073ffffffffffffffffffffffffffffffffffffffff1660808173ffffffffffffffffffffffffffffffffffffffff16815250506000801b6001819055506002600154908060018154018082558091505060019003906000526020600020016000909190919091505550620003c9565b600033905090565b60008060009054906101000a900473ffffffffffffffffffffffffffffffffffffffff169050816000806101000a81548173ffffffffffffffffffffffffffffffffffffffff021916908373ffffffffffffffffffffffffffffffffffffffff1602179055508173ffffffffffffffffffffffffffffffffffffffff168173ffffffffffffffffffffffffffffffffffffffff167f8be0079c531659141344cd1fd0a4f28419497f9722a3daafe3b4186f6b6457e060405160405180910390a35050565b600080fd5b600073ffffffffffffffffffffffffffffffffffffffff82169050919050565b6000620002ae8262000281565b9050919050565b620002c081620002a1565b8114620002cc57600080fd5b50565b600081519050620002e081620002b5565b92915050565b600060208284031215620002ff57620002fe6200027c565b5b60006200030f84828501620002cf565b91505092915050565b6200032381620002a1565b82525050565b600060208201905062000340600083018462000318565b92915050565b600082825260208201905092915050565b7f496e76616c696420766572696669657220616464726573730000000000000000600082015250565b60006200038f60188362000346565b91506200039c8262000357565b602082019050919050565b60006020820190508181036000830152620003c28162000380565b9050919050565b608051611f6e620003ec600039600081816106730152610c2b0152611f6e6000f3fe60806040526004361061012a5760003560e01c806371c5ecb1116100ab5780639658fac21161006f5780639658fac2146103ce5780639ea971901461040b578063b214faa514610436578063f165053614610452578063f2393bcf1461047d578063f2fde38b146104ba5761012a565b806371c5ecb1146102d5578063839df945146103125780638da5cb5b1461034f578063934aef271461037a57806395d07edb146103a55761012a565b80632b7ac3f3116100f25780632b7ac3f31461020257806338c1c42f1461022d578063666eb3fc146102565780636d9833e314610281578063715018a6146102be5761012a565b8063082febf01461012f5780630be4f4221461015a57806312065fe0146101855780631ff76da9146101b05780632916af8d146101d9575b600080fd5b34801561013b57600080fd5b506101446104e3565b6040516101519190610f0a565b60405180910390f35b34801561016657600080fd5b5061016f6104f4565b60405161017c9190610f0a565b60405180910390f35b34801561019157600080fd5b5061019a6104fa565b6040516101a79190610f0a565b60405180910390f35b3480156101bc57600080fd5b506101d760048036038101906101d29190610fa4565b610502565b005b3480156101e557600080fd5b5061020060048036038101906101fb91906110a3565b610628565b005b34801561020e57600080fd5b50610217610671565b6040516102249190611182565b60405180910390f35b34801561023957600080fd5b50610254600480360381019061024f919061119d565b610695565b005b34801561026257600080fd5b5061026b6106d8565b6040516102789190610f0a565b60405180910390f35b34801561028d57600080fd5b506102a860048036038101906102a3919061121e565b6106e5565b6040516102b59190611266565b60405180910390f35b3480156102ca57600080fd5b506102d3610751565b005b3480156102e157600080fd5b506102fc60048036038101906102f791906112ad565b610765565b60405161030991906112e9565b60405180910390f35b34801561031e57600080fd5b506103396004803603810190610334919061121e565b610789565b6040516103469190611266565b60405180910390f35b34801561035b57600080fd5b506103646107a9565b6040516103719190611325565b60405180910390f35b34801561038657600080fd5b5061038f6107d2565b60405161039c9190610f0a565b60405180910390f35b3480156103b157600080fd5b506103cc60048036038101906103c7919061121e565b6107df565b005b3480156103da57600080fd5b506103f560048036038101906103f091906112ad565b610852565b60405161040291906112e9565b60405180910390f35b34801561041757600080fd5b506104206108c1565b60405161042d91906112e9565b60405180910390f35b610450600480360381019061044b919061121e565b6108c7565b005b34801561045e57600080fd5b50610467610ade565b6040516104749190610f0a565b60405180910390f35b34801561048957600080fd5b506104a4600480360381019061049f91906112ad565b610ae3565b6040516104b19190611266565b60405180910390f35b3480156104c657600080fd5b506104e160048036038101906104dc919061136c565b610b03565b005b601460026104f191906114fb565b81565b60055481565b600047905090565b610622846002806020026040519081016040528092919082600260200280828437600081840152601f19601f82011690508083019250505050505084600280602002604051908101604052809291906000905b828210156105a9578382604002016002806020026040519081016040528092919082600260200280828437600081840152601f19601f82011690508083019250505050505081526020019060010190610555565b50505050846002806020026040519081016040528092919082600260200280828437600081840152601f19601f820116905080830192505050505050846003806020026040519081016040528092919082600360200280828437600081840152601f19601f820116905080830192505050505050610b89565b50505050565b610630610d9e565b827fd1bfe49375758637da9655e089ce8b49043c193cb1cdd2c7646e0a4f50f2df23838342604051610664939291906115a4565b60405180910390a2505050565b7f000000000000000000000000000000000000000000000000000000000000000081565b600080600086868101906106a991906117b3565b925092509250600085858101906106c091906118b8565b90506106ce84848484610b89565b5050505050505050565b6000600280549050905090565b60008060001b82036106fa576000905061074c565b60005b60028054905081101561074657826002828154811061071f5761071e6118e5565b5b90600052602060002001540361073957600191505061074c565b80806001019150506106fd565b50600090505b919050565b610759610d9e565b6107636000610e25565b565b6002818154811061077557600080fd5b906000526020600020016000915090505481565b60046020528060005260406000206000915054906101000a900460ff1681565b60008060009054906101000a900473ffffffffffffffffffffffffffffffffffffffff16905090565b6000600280549050905090565b6107e7610d9e565b806001819055506002819080600181540180825580915050600190039060005260206000200160009091909190915055807feb7e96ba82cae6fc90d20d03f0bdf85ca1a24f4976ab9f9b38b8305cd4172ecd426040516108479190610f0a565b60405180910390a250565b6000600280549050821061089b576040517f08c379a000000000000000000000000000000000000000000000000000000000815260040161089290611971565b60405180910390fd5b600282815481106108af576108ae6118e5565b5b90600052602060002001549050919050565b60015481565b6000341161090a576040517f08c379a0000000000000000000000000000000000000000000000000000000008152600401610901906119dd565b60405180910390fd5b6014600261091891906114fb565b6005541061095b576040517f08c379a000000000000000000000000000000000000000000000000000000000815260040161095290611a49565b60405180910390fd5b6004600082815260200190815260200160002060009054906101000a900460ff16156109bc576040517f08c379a00000000000000000000000000000000000000000000000000000000081526004016109b390611ab5565b60405180910390fd5b60016004600083815260200190815260200160002060006101000a81548160ff0219169083151502179055506000600154905060015482604051602001610a04929190611af6565b6040516020818303038152906040528051906020012060018190555060026001549080600181540180825580915050600190039060005260206000200160009091909190915055817fe1f1096fd8bc7d572fb7ad7e4102736b6615500975c0252ea91ef1b765c4989760055442604051610a7f929190611b22565b60405180910390a2600154817fcdad51d1d27b433fdb6cbd1aefd9c7e059b11604ee1c1343b50bea6f6662cf8442604051610aba9190610f0a565b60405180910390a360056000815480929190610ad590611b4b565b91905055505050565b601481565b60036020528060005260406000206000915054906101000a900460ff1681565b610b0b610d9e565b600073ffffffffffffffffffffffffffffffffffffffff168173ffffffffffffffffffffffffffffffffffffffff1603610b7d5760006040517f1e4fbdf7000000000000000000000000000000000000000000000000000000008152600401610b749190611325565b60405180910390fd5b610b8681610e25565b50565b600081600060038110610b9f57610b9e6118e5565b5b602002015160001b9050600082600160038110610bbf57610bbe6118e5565b5b602002015190506003600082815260200190815260200160002060009054906101000a900460ff1615610c27576040517f08c379a0000000000000000000000000000000000000000000000000000000008152600401610c1e90611bdf565b60405180910390fd5b60007f000000000000000000000000000000000000000000000000000000000000000073ffffffffffffffffffffffffffffffffffffffff166311479fea888888886040518563ffffffff1660e01b8152600401610c889493929190611e2c565b602060405180830381865afa158015610ca5573d6000803e3d6000fd5b505050506040513d601f19601f82011682018060405250810190610cc99190611e9f565b905080610d0b576040517f08c379a0000000000000000000000000000000000000000000000000000000008152600401610d0290611f18565b60405180910390fd5b60016003600084815260200190815260200160002060006101000a81548160ff02191690831515021790555082600181905550600283908060018154018082558091505060019003906000526020600020016000909190919091505581837f28c46a25ddc870539b3632005149769bca36c4c76e5caa38c25b6a4a39e9e22060405160405180910390a350505050505050565b610da6610ee9565b73ffffffffffffffffffffffffffffffffffffffff16610dc46107a9565b73ffffffffffffffffffffffffffffffffffffffff1614610e2357610de7610ee9565b6040517f118cdaa7000000000000000000000000000000000000000000000000000000008152600401610e1a9190611325565b60405180910390fd5b565b60008060009054906101000a900473ffffffffffffffffffffffffffffffffffffffff169050816000806101000a81548173ffffffffffffffffffffffffffffffffffffffff021916908373ffffffffffffffffffffffffffffffffffffffff1602179055508173ffffffffffffffffffffffffffffffffffffffff168173ffffffffffffffffffffffffffffffffffffffff167f8be0079c531659141344cd1fd0a4f28419497f9722a3daafe3b4186f6b6457e060405160405180910390a35050565b600033905090565b6000819050919050565b610f0481610ef1565b82525050565b6000602082019050610f1f6000830184610efb565b92915050565b6000604051905090565b600080fd5b600080fd5b600080fd5b600081905082602060020282011115610f5a57610f59610f39565b5b92915050565b600081905082604060020282011115610f7c57610f7b610f39565b5b92915050565b600081905082602060030282011115610f9e57610f9d610f39565b5b92915050565b6000806000806101608587031215610fbf57610fbe610f2f565b5b6000610fcd87828801610f3e565b9450506040610fde87828801610f60565b93505060c0610fef87828801610f3e565b92505061010061100187828801610f82565b91505092959194509250565b6000819050919050565b6110208161100d565b811461102b57600080fd5b50565b60008135905061103d81611017565b92915050565b600080fd5b600080fd5b60008083601f84011261106357611062611043565b5b8235905067ffffffffffffffff8111156110805761107f611048565b5b60208301915083600182028301111561109c5761109b610f39565b5b9250929050565b6000806000604084860312156110bc576110bb610f2f565b5b60006110ca8682870161102e565b935050602084013567ffffffffffffffff8111156110eb576110ea610f34565b5b6110f78682870161104d565b92509250509250925092565b600073ffffffffffffffffffffffffffffffffffffffff82169050919050565b6000819050919050565b600061114861114361113e84611103565b611123565b611103565b9050919050565b600061115a8261112d565b9050919050565b600061116c8261114f565b9050919050565b61117c81611161565b82525050565b60006020820190506111976000830184611173565b92915050565b600080600080604085870312156111b7576111b6610f2f565b5b600085013567ffffffffffffffff8111156111d5576111d4610f34565b5b6111e18782880161104d565b9450945050602085013567ffffffffffffffff81111561120457611203610f34565b5b6112108782880161104d565b925092505092959194509250565b60006020828403121561123457611233610f2f565b5b60006112428482850161102e565b91505092915050565b60008115159050919050565b6112608161124b565b82525050565b600060208201905061127b6000830184611257565b92915050565b61128a81610ef1565b811461129557600080fd5b50565b6000813590506112a781611281565b92915050565b6000602082840312156112c3576112c2610f2f565b5b60006112d184828501611298565b91505092915050565b6112e38161100d565b82525050565b60006020820190506112fe60008301846112da565b92915050565b600061130f82611103565b9050919050565b61131f81611304565b82525050565b600060208201905061133a6000830184611316565b92915050565b61134981611304565b811461135457600080fd5b50565b60008135905061136681611340565b92915050565b60006020828403121561138257611381610f2f565b5b600061139084828501611357565b91505092915050565b7f4e487b7100000000000000000000000000000000000000000000000000000000600052601160045260246000fd5b60008160011c9050919050565b6000808291508390505b600185111561141f578086048111156113fb576113fa611399565b5b600185161561140a5780820291505b8081029050611418856113c8565b94506113df565b94509492505050565b60008261143857600190506114f4565b8161144657600090506114f4565b816001811461145c576002811461146657611495565b60019150506114f4565b60ff84111561147857611477611399565b5b8360020a91508482111561148f5761148e611399565b5b506114f4565b5060208310610133831016604e8410600b84101617156114ca5782820a9050838111156114c5576114c4611399565b5b6114f4565b6114d784848460016113d5565b925090508184048111156114ee576114ed611399565b5b81810290505b9392505050565b600061150682610ef1565b915061151183610ef1565b925061153e7fffffffffffffffffffffffffffffffffffffffffffffffffffffffffffffffff8484611428565b905092915050565b600082825260208201905092915050565b82818337600083830152505050565b6000601f19601f8301169050919050565b60006115838385611546565b9350611590838584611557565b61159983611566565b840190509392505050565b600060408201905081810360008301526115bf818587611577565b90506115ce6020830184610efb565b949350505050565b7f4e487b7100000000000000000000000000000000000000000000000000000000600052604160045260246000fd5b61160e82611566565b810181811067ffffffffffffffff8211171561162d5761162c6115d6565b5b80604052505050565b6000611640610f25565b905061164c8282611605565b919050565b600067ffffffffffffffff82111561166c5761166b6115d6565b5b602082029050919050565b600061168a61168584611651565b611636565b905080602084028301858111156116a4576116a3610f39565b5b835b818110156116cd57806116b98882611298565b8452602084019350506020810190506116a6565b5050509392505050565b600082601f8301126116ec576116eb611043565b5b60026116f9848285611677565b91505092915050565b600067ffffffffffffffff82111561171d5761171c6115d6565b5b602082029050919050565b600061173b61173684611702565b611636565b9050806040840283018581111561175557611754610f39565b5b835b8181101561177e578061176a88826116d7565b845260208401935050604081019050611757565b5050509392505050565b600082601f83011261179d5761179c611043565b5b60026117aa848285611728565b91505092915050565b600080600061010084860312156117cd576117cc610f2f565b5b60006117db868287016116d7565b93505060406117ec86828701611788565b92505060c06117fd868287016116d7565b9150509250925092565b600067ffffffffffffffff821115611822576118216115d6565b5b602082029050919050565b600061184061183b84611807565b611636565b9050806020840283018581111561185a57611859610f39565b5b835b81811015611883578061186f8882611298565b84526020840193505060208101905061185c565b5050509392505050565b600082601f8301126118a2576118a1611043565b5b60036118af84828561182d565b91505092915050565b6000606082840312156118ce576118cd610f2f565b5b60006118dc8482850161188d565b91505092915050565b7f4e487b7100000000000000000000000000000000000000000000000000000000600052603260045260246000fd5b600082825260208201905092915050565b7f496e646578206f7574206f6620626f756e647300000000000000000000000000600082015250565b600061195b601383611914565b915061196682611925565b602082019050919050565b6000602082019050818103600083015261198a8161194e565b9050919050565b7f4d757374206465706f73697420736f6d65204554480000000000000000000000600082015250565b60006119c7601583611914565b91506119d282611991565b602082019050919050565b600060208201905081810360008301526119f6816119ba565b9050919050565b7f4d65726b6c6520747265652069732066756c6c00000000000000000000000000600082015250565b6000611a33601383611914565b9150611a3e826119fd565b602082019050919050565b60006020820190508181036000830152611a6281611a26565b9050919050565b7f436f6d6d69746d656e7420616c72656164792065786973747300000000000000600082015250565b6000611a9f601983611914565b9150611aaa82611a69565b602082019050919050565b60006020820190508181036000830152611ace81611a92565b9050919050565b6000819050919050565b611af0611aeb8261100d565b611ad5565b82525050565b6000611b028285611adf565b602082019150611b128284611adf565b6020820191508190509392505050565b6000604082019050611b376000830185610efb565b611b446020830184610efb565b9392505050565b6000611b5682610ef1565b91507fffffffffffffffffffffffffffffffffffffffffffffffffffffffffffffffff8203611b8857611b87611399565b5b600182019050919050565b7f4e756c6c696669657220616c7265616479207370656e74000000000000000000600082015250565b6000611bc9601783611914565b9150611bd482611b93565b602082019050919050565b60006020820190508181036000830152611bf881611bbc565b9050919050565b600060029050919050565b600081905092915050565b6000819050919050565b611c2881610ef1565b82525050565b6000611c3a8383611c1f565b60208301905092915050565b6000602082019050919050565b611c5c81611bff565b611c668184611c0a565b9250611c7182611c15565b8060005b83811015611ca2578151611c898782611c2e565b9650611c9483611c46565b925050600181019050611c75565b505050505050565b600060029050919050565b600081905092915050565b6000819050919050565b600081905092915050565b611cde81611bff565b611ce88184611cca565b9250611cf382611c15565b8060005b83811015611d24578151611d0b8782611c2e565b9650611d1683611c46565b925050600181019050611cf7565b505050505050565b6000611d388383611cd5565b60408301905092915050565b6000602082019050919050565b611d5a81611caa565b611d648184611cb5565b9250611d6f82611cc0565b8060005b83811015611da0578151611d878782611d2c565b9650611d9283611d44565b925050600181019050611d73565b505050505050565b600060039050919050565b600081905092915050565b6000819050919050565b6000602082019050919050565b611dde81611da8565b611de88184611db3565b9250611df382611dbe565b8060005b83811015611e24578151611e0b8782611c2e565b9650611e1683611dc8565b925050600181019050611df7565b505050505050565b600061016082019050611e426000830187611c53565b611e4f6040830186611d51565b611e5c60c0830185611c53565b611e6a610100830184611dd5565b95945050505050565b611e7c8161124b565b8114611e8757600080fd5b50565b600081519050611e9981611e73565b92915050565b600060208284031215611eb557611eb4610f2f565b5b6000611ec384828501611e8a565b91505092915050565b7f496e76616c6964205a4b2070726f6f6600000000000000000000000000000000600082015250565b6000611f02601083611914565b9150611f0d82611ecc565b602082019050919050565b60006020820190508181036000830152611f3181611ef5565b905091905056fea2646970667358221220717055aa1789affa50df6f7e44a7e117327a2601197f048b50eb9171f3f9254764736f6c63430008180033",
  "linkReferences": {},
  "deployedLinkReferences": {}
}