{"packages/contracts/contracts/TransactionRegistry.sol":{"TransactionRegistry":{"abi":[{"inputs":[{"internalType":"address","name":"_verifierAddress","type":"address"}],"stateMutability":"nonpayable","type":"constructor"},{"anonymous":false,"inputs":[{"indexed":true,"internalType":"bytes32","name":"resultHash","type":"bytes32"},{"indexed":false,"internalType":"bytes","name":"metadata","type":"bytes"},{"indexed":false,"internalType":"uint256","name":"timestamp","type":"uint256"}],"name":"AggregateResultStored","type":"event"},{"anonymous":false,"inputs":[{"indexed":true,"internalType":"bytes32","name":"root","type":"bytes32"},{"indexed":false,"internalType":"uint256","name":"timestamp","type":"uint256"}],"name":"MerkleRootRegistered","type":"event"},{"anonymous":false,"inputs":[{"indexed":true,"internalType":"address","name":"previousOwner","type":"address"},{"indexed":true,"internalType":"address","name":"newOwner","type":"address"}],"name":"OwnershipTransferred","type":"event"},{"anonymous":false,"inputs":[{"indexed":true,"internalType":"bytes32","name":"newRoot","type":"bytes32"},{"indexed":true,"internalType":"uint256","name":"nullifierHash","type":"uint256"}],"name":"TransactionApplied","type":"event"},{"inputs":[{"internalType":"uint256[2]","name":"a","type":"uint256[2]"},{"internalType":"uint256[2][2]","name":"b","type":"uint256[2][2]"},{"internalType":"uint256[2]","name":"c","type":"uint256[2]"},{"internalType":"uint256[3]","name":"input","type":"uint256[3]"}],"name":"applyTransaction","outputs":[],"stateMutability":"nonpayable","type":"function"},{"inputs":[{"internalType":"bytes","name":"proofBytes","type":"bytes"},{"internalType":"bytes","name":"pubData","type":"bytes"}],"name":"applyTransactionBytes","outputs":[],"stateMutability":"nonpayable","type":"function"},{"inputs":[],"name":"currentMerkleRoot","outputs":[{"internalType":"bytes32","name":"","type":"bytes32"}],"stateMutability":"view","type":"function"},{"inputs":[{"internalType":"uint256","name":"idx","type":"uint256"}],"name":"merkleRootAt","outputs":[{"internalType":"bytes32","name":"","type":"bytes32"}],"stateMutability":"view","type":"function"},{"inputs":[],"name":"merkleRootCount","outputs":[{"internalType":"uint256","name":"","type":"uint256"}],"stateMutability":"view","type":"function"},{"inputs":[{"internalType":"uint256","name":"","type":"uint256"}],"name":"merkleRoots","outputs":[{"internalType":"bytes32","name":"","type":"bytes32"}],"stateMutability":"view","type":"function"},{"inputs":[{"internalType":"uint256","name":"","type":"uint256"}],"name":"nullifiersUsed","outputs":[{"internalType":"bool","name":"","type":"bool"}],"stateMutability":"view","type":"function"},{"inputs":[],"name":"owner","outputs":[{"internalType":"address","name":"","type":"address"}],"stateMutability":"view","type":"function"},{"inputs":[{"internalType":"bytes32","name":"_root","type":"bytes32"}],"name":"registerRoot","outputs":[],"stateMutability":"nonpayable","type":"function"},{"inputs":[],"name":"renounceOwnership","outputs":[],"stateMutability":"nonpayable","type":"function"},{"inputs":[{"internalType":"bytes32","name":"resultHash","type":"bytes32"},{"internalType":"bytes","name":"metadata","type":"bytes"}],"name":"storeAggregateResult","outputs":[],"stateMutability":"nonpayable","type":"function"},{"inputs":[{"internalType":"address","name":"newOwner","type":"address"}],"name":"transferOwnership","outputs":[],"stateMutability":"nonpayable","type":"function"},{"inputs":[],"name":"verifier","outputs":[{"internalType":"contract IVerifier","name":"","type":"address"}],"stateMutability":"view","type":"function"}],"evm":{"bytecode":{"linkReferences":{},"object":"60a06040523480156200001157600080fd5b50604051620019ce380380620019ce8339818101604052810190620000379190620001eb565b620000576200004b6200010860201b60201c565b6200011060201b60201c565b600073ffffffffffffffffffffffffffffffffffffffff168173ffffffffffffffffffffffffffffffffffffffff161415620000ca576040517f08c379a0000000000000000000000000000000000000000000000000000000008152600401620000c19062000259565b60405180910390fd5b8073ffffffffffffffffffffffffffffffffffffffff1660808173ffffffffffffffffffffffffffffffffffffffff1660601b8152505050620002da565b600033905090565b60008060009054906101000a900473ffffffffffffffffffffffffffffffffffffffff169050816000806101000a81548173ffffffffffffffffffffffffffffffffffffffff021916908373ffffffffffffffffffffffffffffffffffffffff1602179055508173ffffffffffffffffffffffffffffffffffffffff168173ffffffffffffffffffffffffffffffffffffffff167f8be0079c531659141344cd1fd0a4f28419497f9722a3daafe3b4186f6b6457e060405160405180910390a35050565b600081519050620001e581620002c0565b92915050565b600060208284031215620001fe57600080fd5b60006200020e84828501620001d4565b91505092915050565b6000620002266018836200027b565b91507f496e76616c6964207665726966696572206164647265737300000000000000006000830152602082019050919050565b60006020820190508181036000830152620002748162000217565b9050919050565b600082825260208201905092915050565b60006200029982620002a0565b9050919050565b600073ffffffffffffffffffffffffffffffffffffffff82169050919050565b620002cb816200028c565b8114620002d757600080fd5b50565b60805160601c6116ce62000300600039600081816103e3015261075601526116ce6000f3fe608060405234801561001057600080fd5b50600436106100cf5760003560e01c806371c5ecb11161008c5780639658fac2116100665780639658fac2146101d85780639ea9719014610208578063f2393bcf14610226578063f2fde38b14610256576100cf565b806371c5ecb11461016e5780638da5cb5b1461019e57806395d07edb146101bc576100cf565b80631ff76da9146100d45780632916af8d146100f05780632b7ac3f31461010c57806338c1c42f1461012a578063666eb3fc14610146578063715018a614610164575b600080fd5b6100ee60048036038101906100e99190610ce1565b610272565b005b61010a60048036038101906101059190610e11565b610398565b005b6101146103e1565b604051610121919061134a565b60405180910390f35b610144600480360381019061013f9190610e69565b610405565b005b61014e610448565b60405161015b9190611405565b60405180910390f35b61016c610455565b005b61018860048036038101906101839190610ede565b610469565b60405161019591906112fd565b60405180910390f35b6101a661048d565b6040516101b39190611280565b60405180910390f35b6101d660048036038101906101d19190610de8565b6104b6565b005b6101f260048036038101906101ed9190610ede565b610529565b6040516101ff91906112fd565b60405180910390f35b6102106105be565b60405161021d91906112fd565b60405180910390f35b610240600480360381019061023b9190610ede565b6105c4565b60405161024d91906112e2565b60405180910390f35b610270600480360381019061026b9190610cb8565b6105e4565b005b610392846002806020026040519081016040528092919082600260200280828437600081840152601f19601f82011690508083019250505050505084600280602002604051908101604052809291906000905b82821015610319578382604002016002806020026040519081016040528092919082600260200280828437600081840152601f19601f820116905080830192505050505050815260200190600101906102c5565b50505050846002806020026040519081016040528092919082600260200280828437600081840152601f19601f820116905080830192505050505050846003806020026040519081016040528092919082600360200280828437600081840152601f19601f820116905080830192505050505050610668565b50505050565b6103a06108d8565b827fd1bfe49375758637da9655e089ce8b49043c193cb1cdd2c7646e0a4f50f2df238383426040516103d493929190611318565b60405180910390a2505050565b7f000000000000000000000000000000000000000000000000000000000000000081565b600080600086868101906104199190610d46565b925092509250600085858101906104309190610d96565b905061043e84848484610668565b5050505050505050565b6000600280549050905090565b61045d6108d8565b6104676000610956565b565b6002818154811061047957600080fd5b906000526020600020016000915090505481565b60008060009054906101000a900473ffffffffffffffffffffffffffffffffffffffff16905090565b6104be6108d8565b806001819055506002819080600181540180825580915050600190039060005260206000200160009091909190915055807feb7e96ba82cae6fc90d20d03f0bdf85ca1a24f4976ab9f9b38b8305cd4172ecd4260405161051e9190611405565b60405180910390a250565b60006002805490508210610572576040517f08c379a0000000000000000000000000000000000000000000000000000000008152600401610569906113e5565b60405180910390fd5b600282815481106105ac577f4e487b7100000000000000000000000000000000000000000000000000000000600052603260045260246000fd5b90600052602060002001549050919050565b60015481565b60036020528060005260406000206000915054906101000a900460ff1681565b6105ec6108d8565b600073ffffffffffffffffffffffffffffffffffffffff168173ffffffffffffffffffffffffffffffffffffffff16141561065c576040517f08c379a000000000000000000000000000000000000000000000000000000000815260040161065390611365565b60405180910390fd5b61066581610956565b50565b6000816000600381106106a4577f4e487b7100000000000000000000000000000000000000000000000000000000600052603260045260246000fd5b602002015160001b90506000826001600381106106ea577f4e487b7100000000000000000000000000000000000000000000000000000000600052603260045260246000fd5b602002015190506003600082815260200190815260200160002060009054906101000a900460ff1615610752576040517f08c379a0000000000000000000000000000000000000000000000000000000008152600401610749906113a5565b60405180910390fd5b60007f000000000000000000000000000000000000000000000000000000000000000073ffffffffffffffffffffffffffffffffffffffff166311479fea888888886040518563ffffffff1660e01b81526004016107b3949392919061129b565b60206040518083038186803b1580156107cb57600080fd5b505afa1580156107df573d6000803e3d6000fd5b505050506040513d601f19601f820116820180604052508101906108039190610dbf565b905080610845576040517f08c379a000000000000000000000000000000000000000000000000000000000815260040161083c90611385565b60405180910390fd5b60016003600084815260200190815260200160002060006101000a81548160ff02191690831515021790555082600181905550600283908060018154018082558091505060019003906000526020600020016000909190919091505581837f28c46a25ddc870539b3632005149769bca36c4c76e5caa38c25b6a4a39e9e22060405160405180910390a350505050505050565b6108e0610a1a565b73ffffffffffffffffffffffffffffffffffffffff166108fe61048d565b73ffffffffffffffffffffffffffffffffffffffff1614610954576040517f08c379a000000000000000000000000000000000000000000000000000000000815260040161094b906113c5565b60405180910390fd5b565b60008060009054906101000a900473ffffffffffffffffffffffffffffffffffffffff169050816000806101000a81548173ffffffffffffffffffffffffffffffffffffffff021916908373ffffffffffffffffffffffffffffffffffffffff1602179055508173ffffffffffffffffffffffffffffffffffffffff168173ffffffffffffffffffffffffffffffffffffffff167f8be0079c531659141344cd1fd0a4f28419497f9722a3daafe3b4186f6b6457e060405160405180910390a35050565b600033905090565b6000610a35610a3084611451565b611420565b90508082856040860282011115610a4b57600080fd5b60005b85811015610a7b5781610a618882610bc3565b845260208401935060408301925050600181019050610a4e565b5050509392505050565b6000610a98610a9384611477565b611420565b90508082856020860282011115610aae57600080fd5b60005b85811015610ade5781610ac48882610ca3565b845260208401935060208301925050600181019050610ab1565b5050509392505050565b6000610afb610af68461149d565b611420565b90508082856020860282011115610b1157600080fd5b60005b85811015610b415781610b278882610ca3565b845260208401935060208301925050600181019050610b14565b5050509392505050565b600081359050610b5a8161163c565b92915050565b600081905082604060020282011115610b7857600080fd5b92915050565b600082601f830112610b8f57600080fd5b6002610b9c848285610a22565b91505092915050565b600081905082602060020282011115610bbd57600080fd5b92915050565b600082601f830112610bd457600080fd5b6002610be1848285610a85565b91505092915050565b600081905082602060030282011115610c0257600080fd5b92915050565b600082601f830112610c1957600080fd5b6003610c26848285610ae8565b91505092915050565b600081519050610c3e81611653565b92915050565b600081359050610c538161166a565b92915050565b60008083601f840112610c6b57600080fd5b8235905067ffffffffffffffff811115610c8457600080fd5b602083019150836001820283011115610c9c57600080fd5b9250929050565b600081359050610cb281611681565b92915050565b600060208284031215610cca57600080fd5b6000610cd884828501610b4b565b91505092915050565b6000806000806101608587031215610cf857600080fd5b6000610d0687828801610ba5565b9450506040610d1787828801610b60565b93505060c0610d2887828801610ba5565b925050610100610d3a87828801610bea565b91505092959194509250565b60008060006101008486031215610d5c57600080fd5b6000610d6a86828701610bc3565b9350506040610d7b86828701610b7e565b92505060c0610d8c86828701610bc3565b9150509250925092565b600060608284031215610da857600080fd5b6000610db684828501610c08565b91505092915050565b600060208284031215610dd157600080fd5b6000610ddf84828501610c2f565b91505092915050565b600060208284031215610dfa57600080fd5b6000610e0884828501610c44565b91505092915050565b600080600060408486031215610e2657600080fd5b6000610e3486828701610c44565b935050602084013567ffffffffffffffff811115610e5157600080fd5b610e5d86828701610c59565b92509250509250925092565b60008060008060408587031215610e7f57600080fd5b600085013567ffffffffffffffff811115610e9957600080fd5b610ea587828801610c59565b9450945050602085013567ffffffffffffffff811115610ec457600080fd5b610ed087828801610c59565b925092505092959194509250565b600060208284031215610ef057600080fd5b6000610efe84828501610ca3565b91505092915050565b6000610f138383610f9d565b60408301905092915050565b6000610f2b8383611262565b60208301905092915050565b610f4081611577565b82525050565b610f4f816114e1565b610f598184611529565b9250610f64826114c3565b8060005b83811015610f95578151610f7c8782610f07565b9650610f8783611502565b925050600181019050610f68565b505050505050565b610fa6816114ec565b610fb08184611534565b9250610fbb826114cd565b8060005b83811015610fec578151610fd38782610f1f565b9650610fde8361150f565b925050600181019050610fbf565b505050505050565b610ffd816114ec565b611007818461153f565b9250611012826114cd565b8060005b8381101561104357815161102a8782610f1f565b96506110358361150f565b925050600181019050611016565b505050505050565b611054816114f7565b61105e818461154a565b9250611069826114d7565b8060005b8381101561109a5781516110818782610f1f565b965061108c8361151c565b92505060018101905061106d565b505050505050565b6110ab81611589565b82525050565b6110ba81611595565b82525050565b60006110cc8385611555565b93506110d98385846115ed565b6110e28361162b565b840190509392505050565b6110f6816115c9565b82525050565b6000611109602683611566565b91507f4f776e61626c653a206e6577206f776e657220697320746865207a65726f206160008301527f64647265737300000000000000000000000000000000000000000000000000006020830152604082019050919050565b600061116f601083611566565b91507f496e76616c6964205a4b2070726f6f66000000000000000000000000000000006000830152602082019050919050565b60006111af601783611566565b91507f4e756c6c696669657220616c7265616479207370656e740000000000000000006000830152602082019050919050565b60006111ef602083611566565b91507f4f776e61626c653a2063616c6c6572206973206e6f7420746865206f776e65726000830152602082019050919050565b600061122f601383611566565b91507f496e646578206f7574206f6620626f756e6473000000000000000000000000006000830152602082019050919050565b61126b816115bf565b82525050565b61127a816115bf565b82525050565b60006020820190506112956000830184610f37565b92915050565b6000610160820190506112b16000830187610ff4565b6112be6040830186610f46565b6112cb60c0830185610ff4565b6112d961010083018461104b565b95945050505050565b60006020820190506112f760008301846110a2565b92915050565b600060208201905061131260008301846110b1565b92915050565b600060408201905081810360008301526113338185876110c0565b90506113426020830184611271565b949350505050565b600060208201905061135f60008301846110ed565b92915050565b6000602082019050818103600083015261137e816110fc565b9050919050565b6000602082019050818103600083015261139e81611162565b9050919050565b600060208201905081810360008301526113be816111a2565b9050919050565b600060208201905081810360008301526113de816111e2565b9050919050565b600060208201905081810360008301526113fe81611222565b9050919050565b600060208201905061141a6000830184611271565b92915050565b6000604051905081810181811067ffffffffffffffff82111715611447576114466115fc565b5b8060405250919050565b600067ffffffffffffffff82111561146c5761146b6115fc565b5b602082029050919050565b600067ffffffffffffffff821115611492576114916115fc565b5b602082029050919050565b600067ffffffffffffffff8211156114b8576114b76115fc565b5b602082029050919050565b6000819050919050565b6000819050919050565b6000819050919050565b600060029050919050565b600060029050919050565b600060039050919050565b6000602082019050919050565b6000602082019050919050565b6000602082019050919050565b600081905092915050565b600081905092915050565b600081905092915050565b600081905092915050565b600082825260208201905092915050565b600082825260208201905092915050565b60006115828261159f565b9050919050565b60008115159050919050565b6000819050919050565b600073ffffffffffffffffffffffffffffffffffffffff82169050919050565b6000819050919050565b60006115d4826115db565b9050919050565b60006115e68261159f565b9050919050565b82818337600083830152505050565b7f4e487b7100000000000000000000000000000000000000000000000000000000600052604160045260246000fd5b6000601f19601f8301169050919050565b61164581611577565b811461165057600080fd5b50565b61165c81611589565b811461166757600080fd5b50565b61167381611595565b811461167e57600080fd5b50565b61168a816115bf565b811461169557600080fd5b5056fea2646970667358221220b005e38d3a5266463f453ad72b20010ee3bbca15f94e8854a80cede63e5e2d8564736f6c63430008000033","opcodes":"PUSH1 0xA0 PUSH1 0x40 MSTORE CALLVALUE DUP1 ISZERO PUSH3 0x11 JUMPI PUSH1 0x0 DUP1 REVERT JUMPDEST POP PUSH1 0x40 MLOAD PUSH3 0x19CE CODESIZE SUB DUP1 PUSH3 0x19CE DUP4 CODECOPY DUP2 DUP2 ADD PUSH1 0x40 MSTORE DUP2 ADD SWAP1 PUSH3 0x37 SWAP2 SWAP1 PUSH3 0x1EB JUMP JUMPDEST PUSH3 0x57 PUSH3 0x4B PUSH3 0x108 PUSH1 0x20 SHL PUSH1 0x20 SHR JUMP JUMPDEST PUSH3 0x110 PUSH1 0x20 SHL PUSH1 0x20 SHR JUMP JUMPDEST PUSH1 0x0 PUSH20 0xFFFFFFFFFFFFFFFFFFFFFFFFFFFFFFFFFFFFFFFF AND DUP2 PUSH20 0xFFFFFFFFFFFFFFFFFFFFFFFFFFFFFFFFFFFFFFFF AND EQ ISZERO PUSH3 0xCA JUMPI PUSH1 0x40 MLOAD PUSH32 0x8C379A000000000000000000000000000000000000000000000000000000000 DUP2 MSTORE PUSH1 0x4 ADD PUSH3 0xC1 SWAP1 PUSH3 0x259 JUMP JUMPDEST PUSH1 0x40 MLOAD DUP1 SWAP2 SUB SWAP1 REVERT JUMPDEST DUP1 PUSH20 0xFFFFFFFFFFFFFFFFFFFFFFFFFFFFFFFFFFFFFFFF AND PUSH1 0x80 DUP2 PUSH20 0xFFFFFFFFFFFFFFFFFFFFFFFFFFFFFFFFFFFFFFFF AND PUSH1 0x60 SHL DUP2 MSTORE POP POP POP PUSH3 0x2DA JUMP JUMPDEST PUSH1 0x0 CALLER SWAP1 POP SWAP1 JUMP JUMPDEST PUSH1 0x0 DUP1 PUSH1 0x0 SWAP1 SLOAD SWAP1 PUSH2 0x100 EXP SWAP1 DIV PUSH20 0xFFFFFFFFFFFFFFFFFFFFFFFFFFFFFFFFFFFFFFFF AND SWAP1 POP DUP2 PUSH1 0x0 DUP1 PUSH2 0x100 EXP DUP2 SLOAD DUP2 PUSH20 0xFFFFFFFFFFFFFFFFFFFFFFFFFFFFFFFFFFFFFFFF MUL NOT AND SWAP1 DUP4 PUSH20 0xFFFFFFFFFFFFFFFFFFFFFFFFFFFFFFFFFFFFFFFF AND MUL OR SWAP1 SSTORE POP DUP2 PUSH20 0xFFFFFFFFFFFFFFFFFFFFFFFFFFFFFFFFFFFFFFFF AND DUP2 PUSH20 0xFFFFFFFFFFFFFFFFFFFFFFFFFFFFFFFFFFFFFFFF AND PUSH32 0x8BE0079C531659141344CD1FD0A4F28419497F9722A3DAAFE3B4186F6B6457E0 PUSH1 0x40 MLOAD PUSH1 0x40 MLOAD DUP1 SWAP2 SUB SWAP1 LOG3 POP POP JUMP JUMPDEST PUSH1 0x0 DUP2 MLOAD SWAP1 POP PUSH3 0x1E5 DUP2 PUSH3 0x2C0 JUMP JUMPDEST SWAP3 SWAP2 POP POP JUMP JUMPDEST PUSH1 0x0 PUSH1 0x20 DUP3 DUP5 SUB SLT ISZERO PUSH3 0x1FE JUMPI PUSH1 0x0 DUP1 REVERT JUMPDEST PUSH1 0x0 PUSH3 0x20E DUP5 DUP3 DUP6 ADD PUSH3 0x1D4 JUMP JUMPDEST SWAP2 POP POP SWAP3 SWAP2 POP POP JUMP JUMPDEST PUSH1 0x0 PUSH3 0x226 PUSH1 0x18 DUP4 PUSH3 0x27B JUMP JUMPDEST SWAP2 POP PUSH32 0x496E76616C696420766572696669657220616464726573730000000000000000 PUSH1 0x0 DUP4 ADD MSTORE PUSH1 0x20 DUP3 ADD SWAP1 POP SWAP2 SWAP1 POP JUMP JUMPDEST PUSH1 0x0 PUSH1 0x20 DUP3 ADD SWAP1 POP DUP2 DUP2 SUB PUSH1 0x0 DUP4 ADD MSTORE PUSH3 0x274 DUP2 PUSH3 0x217 JUMP JUMPDEST SWAP1 POP SWAP2 SWAP1 POP JUMP JUMPDEST PUSH1 0x0 DUP3 DUP3 MSTORE PUSH1 0x20 DUP3 ADD SWAP1 POP SWAP3 SWAP2 POP POP JUMP JUMPDEST PUSH1 0x0 PUSH3 0x299 DUP3 PUSH3 0x2A0 JUMP JUMPDEST SWAP1 POP SWAP2 SWAP1 POP JUMP JUMPDEST PUSH1 0x0 PUSH20 0xFFFFFFFFFFFFFFFFFFFFFFFFFFFFFFFFFFFFFFFF DUP3 AND SWAP1 POP SWAP2 SWAP1 POP JUMP JUMPDEST PUSH3 0x2CB DUP2 PUSH3 0x28C JUMP JUMPDEST DUP2 EQ PUSH3 0x2D7 JUMPI PUSH1 0x0 DUP1 REVERT JUMPDEST POP JUMP JUMPDEST PUSH1 0x80 MLOAD PUSH1 0x60 SHR PUSH2 0x16CE PUSH3 0x300 PUSH1 0x0 CODECOPY PUSH1 0x0 DUP2 DUP2 PUSH2 0x3E3 ADD MSTORE PUSH2 0x756 ADD MSTORE PUSH2 0x16CE PUSH1 0x0 RETURN INVALID PUSH1 0x80 PUSH1 0x40 MSTORE CALLVALUE DUP1 ISZERO PUSH2 0x10 JUMPI PUSH1 0x0 DUP1 REVERT JUMPDEST POP PUSH1 0x4 CALLDATASIZE LT PUSH2 0xCF JUMPI PUSH1 0x0 CALLDATALOAD PUSH1 0xE0 SHR DUP1 PUSH4 0x71C5ECB1 GT PUSH2 0x8C JUMPI DUP1 PUSH4 0x9658FAC2 GT PUSH2 0x66 JUMPI DUP1 PUSH4 0x9658FAC2 EQ PUSH2 0x1D8 JUMPI DUP1 PUSH4 0x9EA97190 EQ PUSH2 0x208 JUMPI DUP1 PUSH4 0xF2393BCF EQ PUSH2 0x226 JUMPI DUP1 PUSH4 0xF2FDE38B EQ PUSH2 0x256 JUMPI PUSH2 0xCF JUMP JUMPDEST DUP1 PUSH4 0x71C5ECB1 EQ PUSH2 0x16E JUMPI DUP1 PUSH4 0x8DA5CB5B EQ PUSH2 0x19E JUMPI DUP1 PUSH4 0x95D07EDB EQ PUSH2 0x1BC JUMPI PUSH2 0xCF JUMP JUMPDEST DUP1 PUSH4 0x1FF76DA9 EQ PUSH2 0xD4 JUMPI DUP1 PUSH4 0x2916AF8D EQ PUSH2 0xF0 JUMPI DUP1 PUSH4 0x2B7AC3F3 EQ PUSH2 0x10C JUMPI DUP1 PUSH4 0x38C1C42F EQ PUSH2 0x12A JUMPI DUP1 PUSH4 0x666EB3FC EQ PUSH2 0x146 JUMPI DUP1 PUSH4 0x715018A6 EQ PUSH2 0x164 JUMPI JUMPDEST PUSH1 0x0 DUP1 REVERT JUMPDEST PUSH2 0xEE PUSH1 0x4 DUP1 CALLDATASIZE SUB DUP2 ADD SWAP1 PUSH2 0xE9 SWAP2 SWAP1 PUSH2 0xCE1 JUMP JUMPDEST PUSH2 0x272 JUMP JUMPDEST STOP JUMPDEST PUSH2 0x10A PUSH1 0x4 DUP1 CALLDATASIZE SUB DUP2 ADD SWAP1 PUSH2 0x105 SWAP2 SWAP1 PUSH2 0xE11 JUMP JUMPDEST PUSH2 0x398 JUMP JUMPDEST STOP JUMPDEST PUSH2 0x114 PUSH2 0x3E1 JUMP JUMPDEST PUSH1 0x40 MLOAD PUSH2 0x121 SWAP2 SWAP1 PUSH2 0x134A JUMP JUMPDEST PUSH1 0x40 MLOAD DUP1 SWAP2 SUB SWAP1 RETURN JUMPDEST PUSH2 0x144 PUSH1 0x4 DUP1 CALLDATASIZE SUB DUP2 ADD SWAP1 PUSH2 0x13F SWAP2 SWAP1 PUSH2 0xE69 JUMP JUMPDEST PUSH2 0x405 JUMP JUMPDEST STOP JUMPDEST PUSH2 0x14E PUSH2 0x448 JUMP JUMPDEST PUSH1 0x40 MLOAD PUSH2 0x15B SWAP2 SWAP1 PUSH2 0x1405 JUMP JUMPDEST PUSH1 0x40 MLOAD DUP1 SWAP2 SUB SWAP1 RETURN JUMPDEST PUSH2 0x16C PUSH2 0x455 JUMP JUMPDEST STOP JUMPDEST PUSH2 0x188 PUSH1 0x4 DUP1 CALLDATASIZE SUB DUP2 ADD SWAP1 PUSH2 0x183 SWAP2 SWAP1 PUSH2 0xEDE JUMP JUMPDEST PUSH2 0x469 JUMP JUMPDEST PUSH1 0x40 MLOAD PUSH2 0x195 SWAP2 SWAP1 PUSH2 0x12FD JUMP JUMPDEST PUSH1 0x40 MLOAD DUP1 SWAP2 SUB SWAP1 RETURN JUMPDEST PUSH2 0x1A6 PUSH2 0x48D JUMP JUMPDEST PUSH1 0x40 MLOAD PUSH2 0x1B3 SWAP2 SWAP1 PUSH2 0x1280 JUMP JUMPDEST PUSH1 0x40 MLOAD DUP1 SWAP2 SUB SWAP1 RETURN JUMPDEST PUSH2 0x1D6 PUSH1 0x4 DUP1 CALLDATASIZE SUB DUP2 ADD SWAP1 PUSH2 0x1D1 SWAP2 SWAP1 PUSH2 0xDE8 JUMP JUMPDEST PUSH2 0x4B6 JUMP JUMPDEST STOP JUMPDEST PUSH2 0x1F2 PUSH1 0x4 DUP1 CALLDATASIZE SUB DUP2 ADD SWAP1 PUSH2 0x1ED SWAP2 SWAP1 PUSH2 0xEDE JUMP JUMPDEST PUSH2 0x529 JUMP JUMPDEST PUSH1 0x40 MLOAD PUSH2 0x1FF SWAP2 SWAP1 PUSH2 0x12FD JUMP JUMPDEST PUSH1 0x40 MLOAD DUP1 SWAP2 SUB SWAP1 RETURN JUMPDEST PUSH2 0x210 PUSH2 0x5BE JUMP JUMPDEST PUSH1 0x40 MLOAD PUSH2 0x21D SWAP2 SWAP1 PUSH2 0x12FD JUMP JUMPDEST PUSH1 0x40 MLOAD DUP1 SWAP2 SUB SWAP1 RETURN JUMPDEST PUSH2 0x240 PUSH1 0x4 DUP1 CALLDATASIZE SUB DUP2 ADD SWAP1 PUSH2 0x23B SWAP2 SWAP1 PUSH2 0xEDE JUMP JUMPDEST PUSH2 0x5C4 JUMP JUMPDEST PUSH1 0x40 MLOAD PUSH2 0x24D SWAP2 SWAP1 PUSH2 0x12E2 JUMP JUMPDEST PUSH1 0x40 MLOAD DUP1 SWAP2 SUB SWAP1 RETURN JUMPDEST PUSH2 0x270 PUSH1 0x4 DUP1 CALLDATASIZE SUB DUP2 ADD SWAP1 PUSH2 0x26B SWAP2 SWAP1 PUSH2 0xCB8 JUMP JUMPDEST PUSH2 0x5E4 JUMP JUMPDEST STOP JUMPDEST PUSH2 0x392 DUP5 PUSH1 0x2 DUP1 PUSH1 0x20 MUL PUSH1 0x40 MLOAD SWAP1 DUP2 ADD PUSH1 0x40 MSTORE DUP1 SWAP3 SWAP2 SWAP1 DUP3 PUSH1 0x2 PUSH1 0x20 MUL DUP1 DUP3 DUP5 CALLDATACOPY PUSH1 0x0 DUP2 DUP5 ADD MSTORE PUSH1 0x1F NOT PUSH1 0x1F DUP3 ADD AND SWAP1 POP DUP1 DUP4 ADD SWAP3 POP POP POP POP POP POP DUP5 PUSH1 0x2 DUP1 PUSH1 0x20 MUL PUSH1 0x40 MLOAD SWAP1 DUP2 ADD PUSH1 0x40 MSTORE DUP1 SWAP3 SWAP2 SWAP1 PUSH1 0x0 SWAP1 JUMPDEST DUP3 DUP3 LT ISZERO PUSH2 0x319 JUMPI DUP4 DUP3 PUSH1 0x40 MUL ADD PUSH1 0x2 DUP1 PUSH1 0x20 MUL PUSH1 0x40 MLOAD SWAP1 DUP2 ADD PUSH1 0x40 MSTORE DUP1 SWAP3 SWAP2 SWAP1 DUP3 PUSH1 0x2 PUSH1 0x20 MUL DUP1 DUP3 DUP5 CALLDATACOPY PUSH1 0x0 DUP2 DUP5 ADD MSTORE PUSH1 0x1F NOT PUSH1 0x1F DUP3 ADD AND SWAP1 POP DUP1 DUP4 ADD SWAP3 POP POP POP POP POP POP DUP2 MSTORE PUSH1 0x20 ADD SWAP1 PUSH1 0x1 ADD SWAP1 PUSH2 0x2C5 JUMP JUMPDEST POP POP POP POP DUP5 PUSH1 0x2 DUP1 PUSH1 0x20 MUL PUSH1 0x40 MLOAD SWAP1 DUP2 ADD PUSH1 0x40 MSTORE DUP1 SWAP3 SWAP2 SWAP1 DUP3 PUSH1 0x2 PUSH1 0x20 MUL DUP1 DUP3 DUP5 CALLDATACOPY PUSH1 0x0 DUP2 DUP5 ADD MSTORE PUSH1 0x1F NOT PUSH1 0x1F DUP3 ADD AND SWAP1 POP DUP1 DUP4 ADD SWAP3 POP POP POP POP POP POP DUP5 PUSH1 0x3 DUP1 PUSH1 0x20 MUL PUSH1 0x40 MLOAD SWAP1 DUP2 ADD PUSH1 0x40 MSTORE DUP1 SWAP3 SWAP2 SWAP1 DUP3 PUSH1 0x3 PUSH1 0x20 MUL DUP1 DUP3 DUP5 CALLDATACOPY PUSH1 0x0 DUP2 DUP5 ADD MSTORE PUSH1 0x1F NOT PUSH1 0x1F DUP3 ADD AND SWAP1 POP DUP1 DUP4 ADD SWAP3 POP POP POP POP POP POP PUSH2 0x668 JUMP JUMPDEST POP POP POP POP JUMP JUMPDEST PUSH2 0x3A0 PUSH2 0x8D8 JUMP JUMPDEST DUP3 PUSH32 0xD1BFE49375758637DA9655E089CE8B49043C193CB1CDD2C7646E0A4F50F2DF23 DUP4 DUP4 TIMESTAMP PUSH1 0x40 MLOAD PUSH2 0x3D4 SWAP4 SWAP3 SWAP2 SWAP1 PUSH2 0x1318 JUMP JUMPDEST PUSH1 0x40 MLOAD DUP1 SWAP2 SUB SWAP1 LOG2 POP POP POP JUMP JUMPDEST PUSH32 0x0 DUP2 JUMP JUMPDEST PUSH1 0x0 DUP1 PUSH1 0x0 DUP7 DUP7 DUP2 ADD SWAP1 PUSH2 0x419 SWAP2 SWAP1 PUSH2 0xD46 JUMP JUMPDEST SWAP3 POP SWAP3 POP SWAP3 POP PUSH1 0x0 DUP6 DUP6 DUP2 ADD SWAP1 PUSH2 0x430 SWAP2 SWAP1 PUSH2 0xD96 JUMP JUMPDEST SWAP1 POP PUSH2 0x43E DUP5 DUP5 DUP5 DUP5 PUSH2 0x668 JUMP JUMPDEST POP POP POP POP POP POP POP POP JUMP JUMPDEST PUSH1 0x0 PUSH1 0x2 DUP1 SLOAD SWAP1 POP SWAP1 POP SWAP1 JUMP JUMPDEST PUSH2 0x45D PUSH2 0x8D8 JUMP JUMPDEST PUSH2 0x467 PUSH1 0x0 PUSH2 0x956 JUMP JUMPDEST JUMP JUMPDEST PUSH1 0x2 DUP2 DUP2 SLOAD DUP2 LT PUSH2 0x479 JUMPI PUSH1 0x0 DUP1 REVERT JUMPDEST SWAP1 PUSH1 0x0 MSTORE PUSH1 0x20 PUSH1 0x0 KECCAK256 ADD PUSH1 0x0 SWAP2 POP SWAP1 POP SLOAD DUP2 JUMP JUMPDEST PUSH1 0x0 DUP1 PUSH1 0x0 SWAP1 SLOAD SWAP1 PUSH2 0x100 EXP SWAP1 DIV PUSH20 0xFFFFFFFFFFFFFFFFFFFFFFFFFFFFFFFFFFFFFFFF AND SWAP1 POP SWAP1 JUMP JUMPDEST PUSH2 0x4BE PUSH2 0x8D8 JUMP JUMPDEST DUP1 PUSH1 0x1 DUP2 SWAP1 SSTORE POP PUSH1 0x2 DUP2 SWAP1 DUP1 PUSH1 0x1 DUP2 SLOAD ADD DUP1 DUP3 SSTORE DUP1 SWAP2 POP POP PUSH1 0x1 SWAP1 SUB SWAP1 PUSH1 0x0 MSTORE PUSH1 0x20 PUSH1 0x0 KECCAK256 ADD PUSH1 0x0 SWAP1 SWAP2 SWAP1 SWAP2 SWAP1 SWAP2 POP SSTORE DUP1 PUSH32 0xEB7E96BA82CAE6FC90D20D03F0BDF85CA1A24F4976AB9F9B38B8305CD4172ECD TIMESTAMP PUSH1 0x40 MLOAD PUSH2 0x51E SWAP2 SWAP1 PUSH2 0x1405 JUMP JUMPDEST PUSH1 0x40 MLOAD DUP1 SWAP2 SUB SWAP1 LOG2 POP JUMP JUMPDEST PUSH1 0x0 PUSH1 0x2 DUP1 SLOAD SWAP1 POP DUP3 LT PUSH2 0x572 JUMPI PUSH1 0x40 MLOAD PUSH32 0x8C379A000000000000000000000000000000000000000000000000000000000 DUP2 MSTORE PUSH1 0x4 ADD PUSH2 0x569 SWAP1 PUSH2 0x13E5 JUMP JUMPDEST PUSH1 0x40 MLOAD DUP1 SWAP2 SUB SWAP1 REVERT JUMPDEST PUSH1 0x2 DUP3 DUP2 SLOAD DUP2 LT PUSH2 0x5AC JUMPI PUSH32 0x4E487B7100000000000000000000000000000000000000000000000000000000 PUSH1 0x0 MSTORE PUSH1 0x32 PUSH1 0x4 MSTORE PUSH1 0x24 PUSH1 0x0 REVERT JUMPDEST SWAP1 PUSH1 0x0 MSTORE PUSH1 0x20 PUSH1 0x0 KECCAK256 ADD SLOAD SWAP1 POP SWAP2 SWAP1 POP JUMP JUMPDEST PUSH1 0x1 SLOAD DUP2 JUMP JUMPDEST PUSH1 0x3 PUSH1 0x20 MSTORE DUP1 PUSH1 0x0 MSTORE PUSH1 0x40 PUSH1 0x0 KECCAK256 PUSH1 0x0 SWAP2 POP SLOAD SWAP1 PUSH2 0x100 EXP SWAP1 DIV PUSH1 0xFF AND DUP2 JUMP JUMPDEST PUSH2 0x5EC PUSH2 0x8D8 JUMP JUMPDEST PUSH1 0x0 PUSH20 0xFFFFFFFFFFFFFFFFFFFFFFFFFFFFFFFFFFFFFFFF AND DUP2 PUSH20 0xFFFFFFFFFFFFFFFFFFFFFFFFFFFFFFFFFFFFFFFF AND EQ ISZERO PUSH2 0x65C JUMPI PUSH1 0x40 MLOAD PUSH32 0x8C379A000000000000000000000000000000000000000000000000000000000 DUP2 MSTORE PUSH1 0x4 ADD PUSH2 0x653 SWAP1 PUSH2 0x1365 JUMP JUMPDEST PUSH1 0x40 MLOAD DUP1 SWAP2 SUB SWAP1 REVERT JUMPDEST PUSH2 0x665 DUP2 PUSH2 0x956 JUMP JUMPDEST POP JUMP JUMPDEST PUSH1 0x0 DUP2 PUSH1 0x0 PUSH1 0x3 DUP2 LT PUSH2 0x6A4 JUMPI PUSH32 0x4E487B7100000000000000000000000000000000000000000000000000000000 PUSH1 0x0 MSTORE PUSH1 0x32 PUSH1 0x4 MSTORE PUSH1 0x24 PUSH1 0x0 REVERT JUMPDEST PUSH1 0x20 MUL ADD MLOAD PUSH1 0x0 SHL SWAP1 POP PUSH1 0x0 DUP3 PUSH1 0x1 PUSH1 0x3 DUP2 LT PUSH2 0x6EA JUMPI PUSH32 0x4E487B7100000000000000000000000000000000000000000000000000000000 PUSH1 0x0 MSTORE PUSH1 0x32 PUSH1 0x4 MSTORE PUSH1 0x24 PUSH1 0x0 REVERT JUMPDEST PUSH1 0x20 MUL ADD MLOAD SWAP1 POP PUSH1 0x3 PUSH1 0x0 DUP3 DUP2 MSTORE PUSH1 0x20 ADD SWAP1 DUP2 MSTORE PUSH1 0x20 ADD PUSH1 0x0 KECCAK256 PUSH1 0x0 SWAP1 SLOAD SWAP1 PUSH2 0x100 EXP SWAP1 DIV PUSH1 0xFF AND ISZERO PUSH2 0x752 JUMPI PUSH1 0x40 MLOAD PUSH32 0x8C379A000000000000000000000000000000000000000000000000000000000 DUP2 MSTORE PUSH1 0x4 ADD PUSH2 0x749 SWAP1 PUSH2 0x13A5 JUMP JUMPDEST PUSH1 0x40 MLOAD DUP1 SWAP2 SUB SWAP1 REVERT JUMPDEST PUSH1 0x0 PUSH32 0x0 PUSH20 0xFFFFFFFFFFFFFFFFFFFFFFFFFFFFFFFFFFFFFFFF AND PUSH4 0x11479FEA DUP9 DUP9 DUP9 DUP9 PUSH1 0x40 MLOAD DUP6 PUSH4 0xFFFFFFFF AND PUSH1 0xE0 SHL DUP2 MSTORE PUSH1 0x4 ADD PUSH2 0x7B3 SWAP5 SWAP4 SWAP3 SWAP2 SWAP1 PUSH2 0x129B JUMP JUMPDEST PUSH1 0x20 PUSH1 0x40 MLOAD DUP1 DUP4 SUB DUP2 DUP7 DUP1 EXTCODESIZE ISZERO DUP1 ISZERO PUSH2 0x7CB JUMPI PUSH1 0x0 DUP1 REVERT JUMPDEST POP GAS STATICCALL ISZERO DUP1 ISZERO PUSH2 0x7DF JUMPI RETURNDATASIZE PUSH1 0x0 DUP1 RETURNDATACOPY RETURNDATASIZE PUSH1 0x0 REVERT JUMPDEST POP POP POP POP PUSH1 0x40 MLOAD RETURNDATASIZE PUSH1 0x1F NOT PUSH1 0x1F DUP3 ADD AND DUP3 ADD DUP1 PUSH1 0x40 MSTORE POP DUP2 ADD SWAP1 PUSH2 0x803 SWAP2 SWAP1 PUSH2 0xDBF JUMP JUMPDEST SWAP1 POP DUP1 PUSH2 0x845 JUMPI PUSH1 0x40 MLOAD PUSH32 0x8C379A000000000000000000000000000000000000000000000000000000000 DUP2 MSTORE PUSH1 0x4 ADD PUSH2 0x83C SWAP1 PUSH2 0x1385 JUMP JUMPDEST PUSH1 0x40 MLOAD DUP1 SWAP2 SUB SWAP1 REVERT JUMPDEST PUSH1 0x1 PUSH1 0x3 PUSH1 0x0 DUP5 DUP2 MSTORE PUSH1 0x20 ADD SWAP1 DUP2 MSTORE PUSH1 0x20 ADD PUSH1 0x0 KECCAK256 PUSH1 0x0 PUSH2 0x100 EXP DUP2 SLOAD DUP2 PUSH1 0xFF MUL NOT AND SWAP1 DUP4 ISZERO ISZERO MUL OR SWAP1 SSTORE POP DUP3 PUSH1 0x1 DUP2 SWAP1 SSTORE POP PUSH1 0x2 DUP4 SWAP1 DUP1 PUSH1 0x1 DUP2 SLOAD ADD DUP1 DUP3 SSTORE DUP1 SWAP2 POP POP PUSH1 0x1 SWAP1 SUB SWAP1 PUSH1 0x0 MSTORE PUSH1 0x20 PUSH1 0x0 KECCAK256 ADD PUSH1 0x0 SWAP1 SWAP2 SWAP1 SWAP2 SWAP1 SWAP2 POP SSTORE DUP2 DUP4 PUSH32 0x28C46A25DDC870539B3632005149769BCA36C4C76E5CAA38C25B6A4A39E9E220 PUSH1 0x40 MLOAD PUSH1 0x40 MLOAD DUP1 SWAP2 SUB SWAP1 LOG3 POP POP POP POP POP POP POP JUMP JUMPDEST PUSH2 0x8E0 PUSH2 0xA1A JUMP JUMPDEST PUSH20 0xFFFFFFFFFFFFFFFFFFFFFFFFFFFFFFFFFFFFFFFF AND PUSH2 0x8FE PUSH2 0x48D JUMP JUMPDEST PUSH20 0xFFFFFFFFFFFFFFFFFFFFFFFFFFFFFFFFFFFFFFFF AND EQ PUSH2 0x954 JUMPI PUSH1 0x40 MLOAD PUSH32 0x8C379A000000000000000000000000000000000000000000000000000000000 DUP2 MSTORE PUSH1 0x4 ADD PUSH2 0x94B SWAP1 PUSH2 0x13C5 JUMP JUMPDEST PUSH1 0x40 MLOAD DUP1 SWAP2 SUB SWAP1 REVERT JUMPDEST JUMP JUMPDEST PUSH1 0x0 DUP1 PUSH1 0x0 SWAP1 SLOAD SWAP1 PUSH2 0x100 EXP SWAP1 DIV PUSH20 0xFFFFFFFFFFFFFFFFFFFFFFFFFFFFFFFFFFFFFFFF AND SWAP1 POP DUP2 PUSH1 0x0 DUP1 PUSH2 0x100 EXP DUP2 SLOAD DUP2 PUSH20 0xFFFFFFFFFFFFFFFFFFFFFFFFFFFFFFFFFFFFFFFF MUL NOT AND SWAP1 DUP4 PUSH20 0xFFFFFFFFFFFFFFFFFFFFFFFFFFFFFFFFFFFFFFFF AND MUL OR SWAP1 SSTORE POP DUP2 PUSH20 0xFFFFFFFFFFFFFFFFFFFFFFFFFFFFFFFFFFFFFFFF AND DUP2 PUSH20 0xFFFFFFFFFFFFFFFFFFFFFFFFFFFFFFFFFFFFFFFF AND PUSH32 0x8BE0079C531659141344CD1FD0A4F28419497F9722A3DAAFE3B4186F6B6457E0 PUSH1 0x40 MLOAD PUSH1 0x40 MLOAD DUP1 SWAP2 SUB SWAP1 LOG3 POP POP JUMP JUMPDEST PUSH1 0x0 CALLER SWAP1 POP SWAP1 JUMP JUMPDEST PUSH1 0x0 PUSH2 0xA35 PUSH2 0xA30 DUP5 PUSH2 0x1451 JUMP JUMPDEST PUSH2 0x1420 JUMP JUMPDEST SWAP1 POP DUP1 DUP3 DUP6 PUSH1 0x40 DUP7 MUL DUP3 ADD GT ISZERO PUSH2 0xA4B JUMPI PUSH1 0x0 DUP1 REVERT JUMPDEST PUSH1 0x0 JUMPDEST DUP6 DUP2 LT ISZERO PUSH2 0xA7B JUMPI DUP2 PUSH2 0xA61 DUP9 DUP3 PUSH2 0xBC3 JUMP JUMPDEST DUP5 MSTORE PUSH1 0x20 DUP5 ADD SWAP4 POP PUSH1 0x40 DUP4 ADD SWAP3 POP POP PUSH1 0x1 DUP2 ADD SWAP1 POP PUSH2 0xA4E JUMP JUMPDEST POP POP POP SWAP4 SWAP3 POP POP POP JUMP JUMPDEST PUSH1 0x0 PUSH2 0xA98 PUSH2 0xA93 DUP5 PUSH2 0x1477 JUMP JUMPDEST PUSH2 0x1420 JUMP JUMPDEST SWAP1 POP DUP1 DUP3 DUP6 PUSH1 0x20 DUP7 MUL DUP3 ADD GT ISZERO PUSH2 0xAAE JUMPI PUSH1 0x0 DUP1 REVERT JUMPDEST PUSH1 0x0 JUMPDEST DUP6 DUP2 LT ISZERO PUSH2 0xADE JUMPI DUP2 PUSH2 0xAC4 DUP9 DUP3 PUSH2 0xCA3 JUMP JUMPDEST DUP5 MSTORE PUSH1 0x20 DUP5 ADD SWAP4 POP PUSH1 0x20 DUP4 ADD SWAP3 POP POP PUSH1 0x1 DUP2 ADD SWAP1 POP PUSH2 0xAB1 JUMP JUMPDEST POP POP POP SWAP4 SWAP3 POP POP POP JUMP JUMPDEST PUSH1 0x0 PUSH2 0xAFB PUSH2 0xAF6 DUP5 PUSH2 0x149D JUMP JUMPDEST PUSH2 0x1420 JUMP JUMPDEST SWAP1 POP DUP1 DUP3 DUP6 PUSH1 0x20 DUP7 MUL DUP3 ADD GT ISZERO PUSH2 0xB11 JUMPI PUSH1 0x0 DUP1 REVERT JUMPDEST PUSH1 0x0 JUMPDEST DUP6 DUP2 LT ISZERO PUSH2 0xB41 JUMPI DUP2 PUSH2 0xB27 DUP9 DUP3 PUSH2 0xCA3 JUMP JUMPDEST DUP5 MSTORE PUSH1 0x20 DUP5 ADD SWAP4 POP PUSH1 0x20 DUP4 ADD SWAP3 POP POP PUSH1 0x1 DUP2 ADD SWAP1 POP PUSH2 0xB14 JUMP JUMPDEST POP POP POP SWAP4 SWAP3 POP POP POP JUMP JUMPDEST PUSH1 0x0 DUP2 CALLDATALOAD SWAP1 POP PUSH2 0xB5A DUP2 PUSH2 0x163C JUMP JUMPDEST SWAP3 SWAP2 POP POP JUMP JUMPDEST PUSH1 0x0 DUP2 SWAP1 POP DUP3 PUSH1 0x40 PUSH1 0x2 MUL DUP3 ADD GT ISZERO PUSH2 0xB78 JUMPI PUSH1 0x0 DUP1 REVERT JUMPDEST SWAP3 SWAP2 POP POP JUMP JUMPDEST PUSH1 0x0 DUP3 PUSH1 0x1F DUP4 ADD SLT PUSH2 0xB8F JUMPI PUSH1 0x0 DUP1 REVERT JUMPDEST PUSH1 0x2 PUSH2 0xB9C DUP5 DUP3 DUP6 PUSH2 0xA22 JUMP JUMPDEST SWAP2 POP POP SWAP3 SWAP2 POP POP JUMP JUMPDEST PUSH1 0x0 DUP2 SWAP1 POP DUP3 PUSH1 0x20 PUSH1 0x2 MUL DUP3 ADD GT ISZERO PUSH2 0xBBD JUMPI PUSH1 0x0 DUP1 REVERT JUMPDEST SWAP3 SWAP2 POP POP JUMP JUMPDEST PUSH1 0x0 DUP3 PUSH1 0x1F DUP4 ADD SLT PUSH2 0xBD4 JUMPI PUSH1 0x0 DUP1 REVERT JUMPDEST PUSH1 0x2 PUSH2 0xBE1 DUP5 DUP3 DUP6 PUSH2 0xA85 JUMP JUMPDEST SWAP2 POP POP SWAP3 SWAP2 POP POP JUMP JUMPDEST PUSH1 0x0 DUP2 SWAP1 POP DUP3 PUSH1 0x20 PUSH1 0x3 MUL DUP3 ADD GT ISZERO PUSH2 0xC02 JUMPI PUSH1 0x0 DUP1 REVERT JUMPDEST SWAP3 SWAP2 POP POP JUMP JUMPDEST PUSH1 0x0 DUP3 PUSH1 0x1F DUP4 ADD SLT PUSH2 0xC19 JUMPI PUSH1 0x0 DUP1 REVERT JUMPDEST PUSH1 0x3 PUSH2 0xC26 DUP5 DUP3 DUP6 PUSH2 0xAE8 JUMP JUMPDEST SWAP2 POP POP SWAP3 SWAP2 POP POP JUMP JUMPDEST PUSH1 0x0 DUP2 MLOAD SWAP1 POP PUSH2 0xC3E DUP2 PUSH2 0x1653 JUMP JUMPDEST SWAP3 SWAP2 POP POP JUMP JUMPDEST PUSH1 0x0 DUP2 CALLDATALOAD SWAP1 POP PUSH2 0xC53 DUP2 PUSH2 0x166A JUMP JUMPDEST SWAP3 SWAP2 POP POP JUMP JUMPDEST PUSH1 0x0 DUP1 DUP4 PUSH1 0x1F DUP5 ADD SLT PUSH2 0xC6B JUMPI PUSH1 0x0 DUP1 REVERT JUMPDEST DUP3 CALLDATALOAD SWAP1 POP PUSH8 0xFFFFFFFFFFFFFFFF DUP2 GT ISZERO PUSH2 0xC84 JUMPI PUSH1 0x0 DUP1 REVERT JUMPDEST PUSH1 0x20 DUP4 ADD SWAP2 POP DUP4 PUSH1 0x1 DUP3 MUL DUP4 ADD GT ISZERO PUSH2 0xC9C JUMPI PUSH1 0x0 DUP1 REVERT JUMPDEST SWAP3 POP SWAP3 SWAP1 POP JUMP JUMPDEST PUSH1 0x0 DUP2 CALLDATALOAD SWAP1 POP PUSH2 0xCB2 DUP2 PUSH2 0x1681 JUMP JUMPDEST SWAP3 SWAP2 POP POP JUMP JUMPDEST PUSH1 0x0 PUSH1 0x20 DUP3 DUP5 SUB SLT ISZERO PUSH2 0xCCA JUMPI PUSH1 0x0 DUP1 REVERT JUMPDEST PUSH1 0x0 PUSH2 0xCD8 DUP5 DUP3 DUP6 ADD PUSH2 0xB4B JUMP JUMPDEST SWAP2 POP POP SWAP3 SWAP2 POP POP JUMP JUMPDEST PUSH1 0x0 DUP1 PUSH1 0x0 DUP1 PUSH2 0x160 DUP6 DUP8 SUB SLT ISZERO PUSH2 0xCF8 JUMPI PUSH1 0x0 DUP1 REVERT JUMPDEST PUSH1 0x0 PUSH2 0xD06 DUP8 DUP3 DUP9 ADD PUSH2 0xBA5 JUMP JUMPDEST SWAP5 POP POP PUSH1 0x40 PUSH2 0xD17 DUP8 DUP3 DUP9 ADD PUSH2 0xB60 JUMP JUMPDEST SWAP4 POP POP PUSH1 0xC0 PUSH2 0xD28 DUP8 DUP3 DUP9 ADD PUSH2 0xBA5 JUMP JUMPDEST SWAP3 POP POP PUSH2 0x100 PUSH2 0xD3A DUP8 DUP3 DUP9 ADD PUSH2 0xBEA JUMP JUMPDEST SWAP2 POP POP SWAP3 SWAP6 SWAP2 SWAP5 POP SWAP3 POP JUMP JUMPDEST PUSH1 0x0 DUP1 PUSH1 0x0 PUSH2 0x100 DUP5 DUP7 SUB SLT ISZERO PUSH2 0xD5C JUMPI PUSH1 0x0 DUP1 REVERT JUMPDEST PUSH1 0x0 PUSH2 0xD6A DUP7 DUP3 DUP8 ADD PUSH2 0xBC3 JUMP JUMPDEST SWAP4 POP POP PUSH1 0x40 PUSH2 0xD7B DUP7 DUP3 DUP8 ADD PUSH2 0xB7E JUMP JUMPDEST SWAP3 POP POP PUSH1 0xC0 PUSH2 0xD8C DUP7 DUP3 DUP8 ADD PUSH2 0xBC3 JUMP JUMPDEST SWAP2 POP POP SWAP3 POP SWAP3 POP SWAP3 JUMP JUMPDEST PUSH1 0x0 PUSH1 0x60 DUP3 DUP5 SUB SLT ISZERO PUSH2 0xDA8 JUMPI PUSH1 0x0 DUP1 REVERT JUMPDEST PUSH1 0x0 PUSH2 0xDB6 DUP5 DUP3 DUP6 ADD PUSH2 0xC08 JUMP JUMPDEST SWAP2 POP POP SWAP3 SWAP2 POP POP JUMP JUMPDEST PUSH1 0x0 PUSH1 0x20 DUP3 DUP5 SUB SLT ISZERO PUSH2 0xDD1 JUMPI PUSH1 0x0 DUP1 REVERT JUMPDEST PUSH1 0x0 PUSH2 0xDDF DUP5 DUP3 DUP6 ADD PUSH2 0xC2F JUMP JUMPDEST SWAP2 POP POP SWAP3 SWAP2 POP POP JUMP JUMPDEST PUSH1 0x0 PUSH1 0x20 DUP3 DUP5 SUB SLT ISZERO PUSH2 0xDFA JUMPI PUSH1 0x0 DUP1 REVERT JUMPDEST PUSH1 0x0 PUSH2 0xE08 DUP5 DUP3 DUP6 ADD PUSH2 0xC44 JUMP JUMPDEST SWAP2 POP POP SWAP3 SWAP2 POP POP JUMP JUMPDEST PUSH1 0x0 DUP1 PUSH1 0x0 PUSH1 0x40 DUP5 DUP7 SUB SLT ISZERO PUSH2 0xE26 JUMPI PUSH1 0x0 DUP1 REVERT JUMPDEST PUSH1 0x0 PUSH2 0xE34 DUP7 DUP3 DUP8 ADD PUSH2 0xC44 JUMP JUMPDEST SWAP4 POP POP PUSH1 0x20 DUP5 ADD CALLDATALOAD PUSH8 0xFFFFFFFFFFFFFFFF DUP2 GT ISZERO PUSH2 0xE51 JUMPI PUSH1 0x0 DUP1 REVERT JUMPDEST PUSH2 0xE5D DUP7 DUP3 DUP8 ADD PUSH2 0xC59 JUMP JUMPDEST SWAP3 POP SWAP3 POP POP SWAP3 POP SWAP3 POP SWAP3 JUMP JUMPDEST PUSH1 0x0 DUP1 PUSH1 0x0 DUP1 PUSH1 0x40 DUP6 DUP8 SUB SLT ISZERO PUSH2 0xE7F JUMPI PUSH1 0x0 DUP1 REVERT JUMPDEST PUSH1 0x0 DUP6 ADD CALLDATALOAD PUSH8 0xFFFFFFFFFFFFFFFF DUP2 GT ISZERO PUSH2 0xE99 JUMPI PUSH1 0x0 DUP1 REVERT JUMPDEST PUSH2 0xEA5 DUP8 DUP3 DUP9 ADD PUSH2 0xC59 JUMP JUMPDEST SWAP5 POP SWAP5 POP POP PUSH1 0x20 DUP6 ADD CALLDATALOAD PUSH8 0xFFFFFFFFFFFFFFFF DUP2 GT ISZERO PUSH2 0xEC4 JUMPI PUSH1 0x0 DUP1 REVERT JUMPDEST PUSH2 0xED0 DUP8 DUP3 DUP9 ADD PUSH2 0xC59 JUMP JUMPDEST SWAP3 POP SWAP3 POP POP SWAP3 SWAP6 SWAP2 SWAP5 POP SWAP3 POP JUMP JUMPDEST PUSH1 0x0 PUSH1 0x20 DUP3 DUP5 SUB SLT ISZERO PUSH2 0xEF0 JUMPI PUSH1 0x0 DUP1 REVERT JUMPDEST PUSH1 0x0 PUSH2 0xEFE DUP5 DUP3 DUP6 ADD PUSH2 0xCA3 JUMP JUMPDEST SWAP2 POP POP SWAP3 SWAP2 POP POP JUMP JUMPDEST PUSH1 0x0 PUSH2 0xF13 DUP4 DUP4 PUSH2 0xF9D JUMP JUMPDEST PUSH1 0x40 DUP4 ADD SWAP1 POP SWAP3 SWAP2 POP POP JUMP JUMPDEST PUSH1 0x0 PUSH2 0xF2B DUP4 DUP4 PUSH2 0x1262 JUMP JUMPDEST PUSH1 0x20 DUP4 ADD SWAP1 POP SWAP3 SWAP2 POP POP JUMP JUMPDEST PUSH2 0xF40 DUP2 PUSH2 0x1577 JUMP JUMPDEST DUP3 MSTORE POP POP JUMP JUMPDEST PUSH2 0xF4F DUP2 PUSH2 0x14E1 JUMP JUMPDEST PUSH2 0xF59 DUP2 DUP5 PUSH2 0x1529 JUMP JUMPDEST SWAP3 POP PUSH2 0xF64 DUP3 PUSH2 0x14C3 JUMP JUMPDEST DUP1 PUSH1 0x0 JUMPDEST DUP4 DUP2 LT ISZERO PUSH2 0xF95 JUMPI DUP2 MLOAD PUSH2 0xF7C DUP8 DUP3 PUSH2 0xF07 JUMP JUMPDEST SWAP7 POP PUSH2 0xF87 DUP4 PUSH2 0x1502 JUMP JUMPDEST SWAP3 POP POP PUSH1 0x1 DUP2 ADD SWAP1 POP PUSH2 0xF68 JUMP JUMPDEST POP POP POP POP POP POP JUMP JUMPDEST PUSH2 0xFA6 DUP2 PUSH2 0x14EC JUMP JUMPDEST PUSH2 0xFB0 DUP2 DUP5 PUSH2 0x1534 JUMP JUMPDEST SWAP3 POP PUSH2 0xFBB DUP3 PUSH2 0x14CD JUMP JUMPDEST DUP1 PUSH1 0x0 JUMPDEST DUP4 DUP2 LT ISZERO PUSH2 0xFEC JUMPI DUP2 MLOAD PUSH2 0xFD3 DUP8 DUP3 PUSH2 0xF1F JUMP JUMPDEST SWAP7 POP PUSH2 0xFDE DUP4 PUSH2 0x150F JUMP JUMPDEST SWAP3 POP POP PUSH1 0x1 DUP2 ADD SWAP1 POP PUSH2 0xFBF JUMP JUMPDEST POP POP POP POP POP POP JUMP JUMPDEST PUSH2 0xFFD DUP2 PUSH2 0x14EC JUMP JUMPDEST PUSH2 0x1007 DUP2 DUP5 PUSH2 0x153F JUMP JUMPDEST SWAP3 POP PUSH2 0x1012 DUP3 PUSH2 0x14CD JUMP JUMPDEST DUP1 PUSH1 0x0 JUMPDEST DUP4 DUP2 LT ISZERO PUSH2 0x1043 JUMPI DUP2 MLOAD PUSH2 0x102A DUP8 DUP3 PUSH2 0xF1F JUMP JUMPDEST SWAP7 POP PUSH2 0x1035 DUP4 PUSH2 0x150F JUMP JUMPDEST SWAP3 POP POP PUSH1 0x1 DUP2 ADD SWAP1 POP PUSH2 0x1016 JUMP JUMPDEST POP POP POP POP POP POP JUMP JUMPDEST PUSH2 0x1054 DUP2 PUSH2 0x14F7 JUMP JUMPDEST PUSH2 0x105E DUP2 DUP5 PUSH2 0x154A JUMP JUMPDEST SWAP3 POP PUSH2 0x1069 DUP3 PUSH2 0x14D7 JUMP JUMPDEST DUP1 PUSH1 0x0 JUMPDEST DUP4 DUP2 LT ISZERO PUSH2 0x109A JUMPI DUP2 MLOAD PUSH2 0x1081 DUP8 DUP3 PUSH2 0xF1F JUMP JUMPDEST SWAP7 POP PUSH2 0x108C DUP4 PUSH2 0x151C JUMP JUMPDEST SWAP3 POP POP PUSH1 0x1 DUP2 ADD SWAP1 POP PUSH2 0x106D JUMP JUMPDEST POP POP POP POP POP POP JUMP JUMPDEST PUSH2 0x10AB DUP2 PUSH2 0x1589 JUMP JUMPDEST DUP3 MSTORE POP POP JUMP JUMPDEST PUSH2 0x10BA DUP2 PUSH2 0x1595 JUMP JUMPDEST DUP3 MSTORE POP POP JUMP JUMPDEST PUSH1 0x0 PUSH2 0x10CC DUP4 DUP6 PUSH2 0x1555 JUMP JUMPDEST SWAP4 POP PUSH2 0x10D9 DUP4 DUP6 DUP5 PUSH2 0x15ED JUMP JUMPDEST PUSH2 0x10E2 DUP4 PUSH2 0x162B JUMP JUMPDEST DUP5 ADD SWAP1 POP SWAP4 SWAP3 POP POP POP JUMP JUMPDEST PUSH2 0x10F6 DUP2 PUSH2 0x15C9 JUMP JUMPDEST DUP3 MSTORE POP POP JUMP JUMPDEST PUSH1 0x0 PUSH2 0x1109 PUSH1 0x26 DUP4 PUSH2 0x1566 JUMP JUMPDEST SWAP2 POP PUSH32 0x4F776E61626C653A206E6577206F776E657220697320746865207A65726F2061 PUSH1 0x0 DUP4 ADD MSTORE PUSH32 0x6464726573730000000000000000000000000000000000000000000000000000 PUSH1 0x20 DUP4 ADD MSTORE PUSH1 0x40 DUP3 ADD SWAP1 POP SWAP2 SWAP1 POP JUMP JUMPDEST PUSH1 0x0 PUSH2 0x116F PUSH1 0x10 DUP4 PUSH2 0x1566 JUMP JUMPDEST SWAP2 POP PUSH32 0x496E76616C6964205A4B2070726F6F6600000000000000000000000000000000 PUSH1 0x0 DUP4 ADD MSTORE PUSH1 0x20 DUP3 ADD SWAP1 POP SWAP2 SWAP1 POP JUMP JUMPDEST PUSH1 0x0 PUSH2 0x11AF PUSH1 0x17 DUP4 PUSH2 0x1566 JUMP JUMPDEST SWAP2 POP PUSH32 0x4E756C6C696669657220616C7265616479207370656E74000000000000000000 PUSH1 0x0 DUP4 ADD MSTORE PUSH1 0x20 DUP3 ADD SWAP1 POP SWAP2 SWAP1 POP JUMP JUMPDEST PUSH1 0x0 PUSH2 0x11EF PUSH1 0x20 DUP4 PUSH2 0x1566 JUMP JUMPDEST SWAP2 POP PUSH32 0x4F776E61626C653A2063616C6C6572206973206E6F7420746865206F776E6572 PUSH1 0x0 DUP4 ADD MSTORE PUSH1 0x20 DUP3 ADD SWAP1 POP SWAP2 SWAP1 POP JUMP JUMPDEST PUSH1 0x0 PUSH2 0x122F PUSH1 0x13 DUP4 PUSH2 0x1566 JUMP JUMPDEST SWAP2 POP PUSH32 0x496E646578206F7574206F6620626F756E647300000000000000000000000000 PUSH1 0x0 DUP4 ADD MSTORE PUSH1 0x20 DUP3 ADD SWAP1 POP SWAP2 SWAP1 POP JUMP JUMPDEST PUSH2 0x126B DUP2 PUSH2 0x15BF JUMP JUMPDEST DUP3 MSTORE POP POP JUMP JUMPDEST PUSH2 0x127A DUP2 PUSH2 0x15BF JUMP JUMPDEST DUP3 MSTORE POP POP JUMP JUMPDEST PUSH1 0x0 PUSH1 0x20 DUP3 ADD SWAP1 POP PUSH2 0x1295 PUSH1 0x0 DUP4 ADD DUP5 PUSH2 0xF37 JUMP JUMPDEST SWAP3 SWAP2 POP POP JUMP JUMPDEST PUSH1 0x0 PUSH2 0x160 DUP3 ADD SWAP1 POP PUSH2 0x12B1 PUSH1 0x0 DUP4 ADD DUP8 PUSH2 0xFF4 JUMP JUMPDEST PUSH2 0x12BE PUSH1 0x40 DUP4 ADD DUP7 PUSH2 0xF46 JUMP JUMPDEST PUSH2 0x12CB PUSH1 0xC0 DUP4 ADD DUP6 PUSH2 0xFF4 JUMP JUMPDEST PUSH2 0x12D9 PUSH2 0x100 DUP4 ADD DUP5 PUSH2 0x104B JUMP JUMPDEST SWAP6 SWAP5 POP POP POP POP POP JUMP JUMPDEST PUSH1 0x0 PUSH1 0x20 DUP3 ADD SWAP1 POP PUSH2 0x12F7 PUSH1 0x0 DUP4 ADD DUP5 PUSH2 0x10A2 JUMP JUMPDEST SWAP3 SWAP2 POP POP JUMP JUMPDEST PUSH1 0x0 PUSH1 0x20 DUP3 ADD SWAP1 POP PUSH2 0x1312 PUSH1 0x0 DUP4 ADD DUP5 PUSH2 0x10B1 JUMP JUMPDEST SWAP3 SWAP2 POP POP JUMP JUMPDEST PUSH1 0x0 PUSH1 0x40 DUP3 ADD SWAP1 POP DUP2 DUP2 SUB PUSH1 0x0 DUP4 ADD MSTORE PUSH2 0x1333 DUP2 DUP6 DUP8 PUSH2 0x10C0 JUMP JUMPDEST SWAP1 POP PUSH2 0x1342 PUSH1 0x20 DUP4 ADD DUP5 PUSH2 0x1271 JUMP JUMPDEST SWAP5 SWAP4 POP POP POP POP JUMP JUMPDEST PUSH1 0x0 PUSH1 0x20 DUP3 ADD SWAP1 POP PUSH2 0x135F PUSH1 0x0 DUP4 ADD DUP5 PUSH2 0x10ED JUMP JUMPDEST SWAP3 SWAP2 POP POP JUMP JUMPDEST PUSH1 0x0 PUSH1 0x20 DUP3 ADD SWAP1 POP DUP2 DUP2 SUB PUSH1 0x0 DUP4 ADD MSTORE PUSH2 0x137E DUP2 PUSH2 0x10FC JUMP JUMPDEST SWAP1 POP SWAP2 SWAP1 POP JUMP JUMPDEST PUSH1 0x0 PUSH1 0x20 DUP3 ADD SWAP1 POP DUP2 DUP2 SUB PUSH1 0x0 DUP4 ADD MSTORE PUSH2 0x139E DUP2 PUSH2 0x1162 JUMP JUMPDEST SWAP1 POP SWAP2 SWAP1 POP JUMP JUMPDEST PUSH1 0x0 PUSH1 0x20 DUP3 ADD SWAP1 POP DUP2 DUP2 SUB PUSH1 0x0 DUP4 ADD MSTORE PUSH2 0x13BE DUP2 PUSH2 0x11A2 JUMP JUMPDEST SWAP1 POP SWAP2 SWAP1 POP JUMP JUMPDEST PUSH1 0x0 PUSH1 0x20 DUP3 ADD SWAP1 POP DUP2 DUP2 SUB PUSH1 0x0 DUP4 ADD MSTORE PUSH2 0x13DE DUP2 PUSH2 0x11E2 JUMP JUMPDEST SWAP1 POP SWAP2 SWAP1 POP JUMP JUMPDEST PUSH1 0x0 PUSH1 0x20 DUP3 ADD SWAP1 POP DUP2 DUP2 SUB PUSH1 0x0 DUP4 ADD MSTORE PUSH2 0x13FE DUP2 PUSH2 0x1222 JUMP JUMPDEST SWAP1 POP SWAP2 SWAP1 POP JUMP JUMPDEST PUSH1 0x0 PUSH1 0x20 DUP3 ADD SWAP1 POP PUSH2 0x141A PUSH1 0x0 DUP4 ADD DUP5 PUSH2 0x1271 JUMP JUMPDEST SWAP3 SWAP2 POP POP JUMP JUMPDEST PUSH1 0x0 PUSH1 0x40 MLOAD SWAP1 POP DUP2 DUP2 ADD DUP2 DUP2 LT PUSH8 0xFFFFFFFFFFFFFFFF DUP3 GT OR ISZERO PUSH2 0x1447 JUMPI PUSH2 0x1446 PUSH2 0x15FC JUMP JUMPDEST JUMPDEST DUP1 PUSH1 0x40 MSTORE POP SWAP2 SWAP1 POP JUMP JUMPDEST PUSH1 0x0 PUSH8 0xFFFFFFFFFFFFFFFF DUP3 GT ISZERO PUSH2 0x146C JUMPI PUSH2 0x146B PUSH2 0x15FC JUMP JUMPDEST JUMPDEST PUSH1 0x20 DUP3 MUL SWAP1 POP SWAP2 SWAP1 POP JUMP JUMPDEST PUSH1 0x0 PUSH8 0xFFFFFFFFFFFFFFFF DUP3 GT ISZERO PUSH2 0x1492 JUMPI PUSH2 0x1491 PUSH2 0x15FC JUMP JUMPDEST JUMPDEST PUSH1 0x20 DUP3 MUL SWAP1 POP SWAP2 SWAP1 POP JUMP JUMPDEST PUSH1 0x0 PUSH8 0xFFFFFFFFFFFFFFFF DUP3 GT ISZERO PUSH2 0x14B8 JUMPI PUSH2 0x14B7 PUSH2 0x15FC JUMP JUMPDEST JUMPDEST PUSH1 0x20 DUP3 MUL SWAP1 POP SWAP2 SWAP1 POP JUMP JUMPDEST PUSH1 0x0 DUP2 SWAP1 POP SWAP2 SWAP1 POP JUMP JUMPDEST PUSH1 0x0 DUP2 SWAP1 POP SWAP2 SWAP1 POP JUMP JUMPDEST PUSH1 0x0 DUP2 SWAP1 POP SWAP2 SWAP1 POP JUMP JUMPDEST PUSH1 0x0 PUSH1 0x2 SWAP1 POP SWAP2 SWAP1 POP JUMP JUMPDEST PUSH1 0x0 PUSH1 0x2 SWAP1 POP SWAP2 SWAP1 POP JUMP JUMPDEST PUSH1 0x0 PUSH1 0x3 SWAP1 POP SWAP2 SWAP1 POP JUMP JUMPDEST PUSH1 0x0 PUSH1 0x20 DUP3 ADD SWAP1 POP SWAP2 SWAP1 POP JUMP JUMPDEST PUSH1 0x0 PUSH1 0x20 DUP3 ADD SWAP1 POP SWAP2 SWAP1 POP JUMP JUMPDEST PUSH1 0x0 PUSH1 0x20 DUP3 ADD SWAP1 POP SWAP2 SWAP1 POP JUMP JUMPDEST PUSH1 0x0 DUP2 SWAP1 POP SWAP3 SWAP2 POP POP JUMP JUMPDEST PUSH1 0x0 DUP2 SWAP1 POP SWAP3 SWAP2 POP POP JUMP JUMPDEST PUSH1 0x0 DUP2 SWAP1 POP SWAP3 SWAP2 POP POP JUMP JUMPDEST PUSH1 0x0 DUP2 SWAP1 POP SWAP3 SWAP2 POP POP JUMP JUMPDEST PUSH1 0x0 DUP3 DUP3 MSTORE PUSH1 0x20 DUP3 ADD SWAP1 POP SWAP3 SWAP2 POP POP JUMP JUMPDEST PUSH1 0x0 DUP3 DUP3 MSTORE PUSH1 0x20 DUP3 ADD SWAP1 POP SWAP3 SWAP2 POP POP JUMP JUMPDEST PUSH1 0x0 PUSH2 0x1582 DUP3 PUSH2 0x159F JUMP JUMPDEST SWAP1 POP SWAP2 SWAP1 POP JUMP JUMPDEST PUSH1 0x0 DUP2 ISZERO ISZERO SWAP1 POP SWAP2 SWAP1 POP JUMP JUMPDEST PUSH1 0x0 DUP2 SWAP1 POP SWAP2 SWAP1 POP JUMP JUMPDEST PUSH1 0x0 PUSH20 0xFFFFFFFFFFFFFFFFFFFFFFFFFFFFFFFFFFFFFFFF DUP3 AND SWAP1 POP SWAP2 SWAP1 POP JUMP JUMPDEST PUSH1 0x0 DUP2 SWAP1 POP SWAP2 SWAP1 POP JUMP JUMPDEST PUSH1 0x0 PUSH2 0x15D4 DUP3 PUSH2 0x15DB JUMP JUMPDEST SWAP1 POP SWAP2 SWAP1 POP JUMP JUMPDEST PUSH1 0x0 PUSH2 0x15E6 DUP3 PUSH2 0x159F JUMP JUMPDEST SWAP1 POP SWAP2 SWAP1 POP JUMP JUMPDEST DUP3 DUP2 DUP4 CALLDATACOPY PUSH1 0x0 DUP4 DUP4 ADD MSTORE POP POP POP JUMP JUMPDEST PUSH32 0x4E487B7100000000000000000000000000000000000000000000000000000000 PUSH1 0x0 MSTORE PUSH1 0x41 PUSH1 0x4 MSTORE PUSH1 0x24 PUSH1 0x0 REVERT JUMPDEST PUSH1 0x0 PUSH1 0x1F NOT PUSH1 0x1F DUP4 ADD AND SWAP1 POP SWAP2 SWAP1 POP JUMP JUMPDEST PUSH2 0x1645 DUP2 PUSH2 0x1577 JUMP JUMPDEST DUP2 EQ PUSH2 0x1650 JUMPI PUSH1 0x0 DUP1 REVERT JUMPDEST POP JUMP JUMPDEST PUSH2 0x165C DUP2 PUSH2 0x1589 JUMP JUMPDEST DUP2 EQ PUSH2 0x1667 JUMPI PUSH1 0x0 DUP1 REVERT JUMPDEST POP JUMP JUMPDEST PUSH2 0x1673 DUP2 PUSH2 0x1595 JUMP JUMPDEST DUP2 EQ PUSH2 0x167E JUMPI PUSH1 0x0 DUP1 REVERT JUMPDEST POP JUMP JUMPDEST PUSH2 0x168A DUP2 PUSH2 0x15BF JUMP JUMPDEST DUP2 EQ PUSH2 0x1695 JUMPI PUSH1 0x0 DUP1 REVERT JUMPDEST POP JUMP INVALID LOG2 PUSH5 0x6970667358 0x22 SLT KECCAK256 0xB0 SDIV 0xE3 DUP14 GASPRICE MSTORE PUSH7 0x463F453AD72B20 ADD 0xE 0xE3 0xBB 0xCA ISZERO 0xF9 0x4E DUP9 SLOAD 0xA8 0xC 0xED 0xE6 RETURNDATACOPY 0x5E 0x2D DUP6 PUSH5 0x736F6C6343 STOP ADDMOD STOP STOP CALLER "},"methodIdentifiers":{"applyTransaction(uint256[2],uint256[2][2],uint256[2],uint256[3])":"1ff76da9","applyTransactionBytes(bytes,bytes)":"38c1c42f","currentMerkleRoot()":"9ea97190","merkleRootAt(uint256)":"9658fac2","merkleRootCount()":"666eb3fc","merkleRoots(uint256)":"71c5ecb1","nullifiersUsed(uint256)":"f2393bcf","owner()":"8da5cb5b","registerRoot(bytes32)":"95d07edb","renounceOwnership()":"715018a6","storeAggregateResult(bytes32,bytes)":"2916af8d","transferOwnership(address)":"f2fde38b","verifier()":"2b7ac3f3"}}}}}