{"contracts/MockVerifier.sol":{"MockVerifierFalse":{"abi":[{"inputs":[{"internalType":"uint256[2]","name":"","type":"uint256[2]"},{"internalType":"uint256[2][2]","name":"","type":"uint256[2][2]"},{"internalType":"uint256[2]","name":"","type":"uint256[2]"},{"internalType":"uint256[3]","name":"","type":"uint256[3]"}],"name":"verifyProof","outputs":[{"internalType":"bool","name":"","type":"bool"}],"stateMutability":"pure","type":"function"}],"evm":{"bytecode":{"linkReferences":{},"object":"608060405234801561001057600080fd5b5061042d806100206000396000f3fe608060405234801561001057600080fd5b506004361061002b5760003560e01c806311479fea14610030575b600080fd5b61004a60048036038101906100459190610358565b610060565b60405161005791906103dc565b60405180910390f35b6000949350505050565b6000604051905090565b600080fd5b600080fd5b6000601f19601f8301169050919050565b7f4e487b7100000000000000000000000000000000000000000000000000000000600052604160045260246000fd5b6100c78261007e565b810181811067ffffffffffffffff821117156100e6576100e561008f565b5b80604052505050565b60006100f961006a565b905061010582826100be565b919050565b600067ffffffffffffffff8211156101255761012461008f565b5b602082029050919050565b600080fd5b6000819050919050565b61014881610135565b811461015357600080fd5b50565b6000813590506101658161013f565b92915050565b600061017e6101798461010a565b6100ef565b9050806020840283018581111561019857610197610130565b5b835b818110156101c157806101ad8882610156565b84526020840193505060208101905061019a565b5050509392505050565b600082601f8301126101e0576101df610079565b5b60026101ed84828561016b565b91505092915050565b600067ffffffffffffffff8211156102115761021061008f565b5b602082029050919050565b600061022f61022a846101f6565b6100ef565b9050806040840283018581111561024957610248610130565b5b835b81811015610272578061025e88826101cb565b84526020840193505060408101905061024b565b5050509392505050565b600082601f83011261029157610290610079565b5b600261029e84828561021c565b91505092915050565b600067ffffffffffffffff8211156102c2576102c161008f565b5b602082029050919050565b60006102e06102db846102a7565b6100ef565b905080602084028301858111156102fa576102f9610130565b5b835b81811015610323578061030f8882610156565b8452602084019350506020810190506102fc565b5050509392505050565b600082601f83011261034257610341610079565b5b600361034f8482856102cd565b91505092915050565b600080600080610160858703121561037357610372610074565b5b6000610381878288016101cb565b94505060406103928782880161027c565b93505060c06103a3878288016101cb565b9250506101006103b58782880161032d565b91505092959194509250565b60008115159050919050565b6103d6816103c1565b82525050565b60006020820190506103f160008301846103cd565b9291505056fea2646970667358221220f46a34340e15665208c82462b64f5445e66ae12fb4c70a99c0e826680023461964736f6c63430008180033","opcodes":"PUSH1 0x80 PUSH1 0x40 MSTORE CALLVALUE DUP1 ISZERO PUSH2 0x10 JUMPI PUSH1 0x0 DUP1 REVERT JUMPDEST POP PUSH2 0x42D DUP1 PUSH2 0x20 PUSH1 0x0 CODECOPY PUSH1 0x0 RETURN INVALID PUSH1 0x80 PUSH1 0x40 MSTORE CALLVALUE DUP1 ISZERO PUSH2 0x10 JUMPI PUSH1 0x0 DUP1 REVERT JUMPDEST POP PUSH1 0x4 CALLDATASIZE LT PUSH2 0x2B JUMPI PUSH1 0x0 CALLDATALOAD PUSH1 0xE0 SHR DUP1 PUSH4 0x11479FEA EQ PUSH2 0x30 JUMPI JUMPDEST PUSH1 0x0 DUP1 REVERT JUMPDEST PUSH2 0x4A PUSH1 0x4 DUP1 CALLDATASIZE SUB DUP2 ADD SWAP1 PUSH2 0x45 SWAP2 SWAP1 PUSH2 0x358 JUMP JUMPDEST PUSH2 0x60 JUMP JUMPDEST PUSH1 0x40 MLOAD PUSH2 0x57 SWAP2 SWAP1 PUSH2 0x3DC JUMP JUMPDEST PUSH1 0x40 MLOAD DUP1 SWAP2 SUB SWAP1 RETURN JUMPDEST PUSH1 0x0 SWAP5 SWAP4 POP POP POP POP JUMP JUMPDEST PUSH1 0x0 PUSH1 0x40 MLOAD SWAP1 POP SWAP1 JUMP JUMPDEST PUSH1 0x0 DUP1 REVERT JUMPDEST PUSH1 0x0 DUP1 REVERT JUMPDEST PUSH1 0x0 PUSH1 0x1F NOT PUSH1 0x1F DUP4 ADD AND SWAP1 POP SWAP2 SWAP1 POP JUMP JUMPDEST PUSH32 0x4E487B7100000000000000000000000000000000000000000000000000000000 PUSH1 0x0 MSTORE PUSH1 0x41 PUSH1 0x4 MSTORE PUSH1 0x24 PUSH1 0x0 REVERT JUMPDEST PUSH2 0xC7 DUP3 PUSH2 0x7E JUMP JUMPDEST DUP2 ADD DUP2 DUP2 LT PUSH8 0xFFFFFFFFFFFFFFFF DUP3 GT OR ISZERO PUSH2 0xE6 JUMPI PUSH2 0xE5 PUSH2 0x8F JUMP JUMPDEST JUMPDEST DUP1 PUSH1 0x40 MSTORE POP POP POP JUMP JUMPDEST PUSH1 0x0 PUSH2 0xF9 PUSH2 0x6A JUMP JUMPDEST SWAP1 POP PUSH2 0x105 DUP3 DUP3 PUSH2 0xBE JUMP JUMPDEST SWAP2 SWAP1 POP JUMP JUMPDEST PUSH1 0x0 PUSH8 0xFFFFFFFFFFFFFFFF DUP3 GT ISZERO PUSH2 0x125 JUMPI PUSH2 0x124 PUSH2 0x8F JUMP JUMPDEST JUMPDEST PUSH1 0x20 DUP3 MUL SWAP1 POP SWAP2 SWAP1 POP JUMP JUMPDEST PUSH1 0x0 DUP1 REVERT JUMPDEST PUSH1 0x0 DUP2 SWAP1 POP SWAP2 SWAP1 POP JUMP JUMPDEST PUSH2 0x148 DUP2 PUSH2 0x135 JUMP JUMPDEST DUP2 EQ PUSH2 0x153 JUMPI PUSH1 0x0 DUP1 REVERT JUMPDEST POP JUMP JUMPDEST PUSH1 0x0 DUP2 CALLDATALOAD SWAP1 POP PUSH2 0x165 DUP2 PUSH2 0x13F JUMP JUMPDEST SWAP3 SWAP2 POP POP JUMP JUMPDEST PUSH1 0x0 PUSH2 0x17E PUSH2 0x179 DUP5 PUSH2 0x10A JUMP JUMPDEST PUSH2 0xEF JUMP JUMPDEST SWAP1 POP DUP1 PUSH1 0x20 DUP5 MUL DUP4 ADD DUP6 DUP2 GT ISZERO PUSH2 0x198 JUMPI PUSH2 0x197 PUSH2 0x130 JUMP JUMPDEST JUMPDEST DUP4 JUMPDEST DUP2 DUP2 LT ISZERO PUSH2 0x1C1 JUMPI DUP1 PUSH2 0x1AD DUP9 DUP3 PUSH2 0x156 JUMP JUMPDEST DUP5 MSTORE PUSH1 0x20 DUP5 ADD SWAP4 POP POP PUSH1 0x20 DUP2 ADD SWAP1 POP PUSH2 0x19A JUMP JUMPDEST POP POP POP SWAP4 SWAP3 POP POP POP JUMP JUMPDEST PUSH1 0x0 DUP3 PUSH1 0x1F DUP4 ADD SLT PUSH2 0x1E0 JUMPI PUSH2 0x1DF PUSH2 0x79 JUMP JUMPDEST JUMPDEST PUSH1 0x2 PUSH2 0x1ED DUP5 DUP3 DUP6 PUSH2 0x16B JUMP JUMPDEST SWAP2 POP POP SWAP3 SWAP2 POP POP JUMP JUMPDEST PUSH1 0x0 PUSH8 0xFFFFFFFFFFFFFFFF DUP3 GT ISZERO PUSH2 0x211 JUMPI PUSH2 0x210 PUSH2 0x8F JUMP JUMPDEST JUMPDEST PUSH1 0x20 DUP3 MUL SWAP1 POP SWAP2 SWAP1 POP JUMP JUMPDEST PUSH1 0x0 PUSH2 0x22F PUSH2 0x22A DUP5 PUSH2 0x1F6 JUMP JUMPDEST PUSH2 0xEF JUMP JUMPDEST SWAP1 POP DUP1 PUSH1 0x40 DUP5 MUL DUP4 ADD DUP6 DUP2 GT ISZERO PUSH2 0x249 JUMPI PUSH2 0x248 PUSH2 0x130 JUMP JUMPDEST JUMPDEST DUP4 JUMPDEST DUP2 DUP2 LT ISZERO PUSH2 0x272 JUMPI DUP1 PUSH2 0x25E DUP9 DUP3 PUSH2 0x1CB JUMP JUMPDEST DUP5 MSTORE PUSH1 0x20 DUP5 ADD SWAP4 POP POP PUSH1 0x40 DUP2 ADD SWAP1 POP PUSH2 0x24B JUMP JUMPDEST POP POP POP SWAP4 SWAP3 POP POP POP JUMP JUMPDEST PUSH1 0x0 DUP3 PUSH1 0x1F DUP4 ADD SLT PUSH2 0x291 JUMPI PUSH2 0x290 PUSH2 0x79 JUMP JUMPDEST JUMPDEST PUSH1 0x2 PUSH2 0x29E DUP5 DUP3 DUP6 PUSH2 0x21C JUMP JUMPDEST SWAP2 POP POP SWAP3 SWAP2 POP POP JUMP JUMPDEST PUSH1 0x0 PUSH8 0xFFFFFFFFFFFFFFFF DUP3 GT ISZERO PUSH2 0x2C2 JUMPI PUSH2 0x2C1 PUSH2 0x8F JUMP JUMPDEST JUMPDEST PUSH1 0x20 DUP3 MUL SWAP1 POP SWAP2 SWAP1 POP JUMP JUMPDEST PUSH1 0x0 PUSH2 0x2E0 PUSH2 0x2DB DUP5 PUSH2 0x2A7 JUMP JUMPDEST PUSH2 0xEF JUMP JUMPDEST SWAP1 POP DUP1 PUSH1 0x20 DUP5 MUL DUP4 ADD DUP6 DUP2 GT ISZERO PUSH2 0x2FA JUMPI PUSH2 0x2F9 PUSH2 0x130 JUMP JUMPDEST JUMPDEST DUP4 JUMPDEST DUP2 DUP2 LT ISZERO PUSH2 0x323 JUMPI DUP1 PUSH2 0x30F DUP9 DUP3 PUSH2 0x156 JUMP JUMPDEST DUP5 MSTORE PUSH1 0x20 DUP5 ADD SWAP4 POP POP PUSH1 0x20 DUP2 ADD SWAP1 POP PUSH2 0x2FC JUMP JUMPDEST POP POP POP SWAP4 SWAP3 POP POP POP JUMP JUMPDEST PUSH1 0x0 DUP3 PUSH1 0x1F DUP4 ADD SLT PUSH2 0x342 JUMPI PUSH2 0x341 PUSH2 0x79 JUMP JUMPDEST JUMPDEST PUSH1 0x3 PUSH2 0x34F DUP5 DUP3 DUP6 PUSH2 0x2CD JUMP JUMPDEST SWAP2 POP POP SWAP3 SWAP2 POP POP JUMP JUMPDEST PUSH1 0x0 DUP1 PUSH1 0x0 DUP1 PUSH2 0x160 DUP6 DUP8 SUB SLT ISZERO PUSH2 0x373 JUMPI PUSH2 0x372 PUSH2 0x74 JUMP JUMPDEST JUMPDEST PUSH1 0x0 PUSH2 0x381 DUP8 DUP3 DUP9 ADD PUSH2 0x1CB JUMP JUMPDEST SWAP5 POP POP PUSH1 0x40 PUSH2 0x392 DUP8 DUP3 DUP9 ADD PUSH2 0x27C JUMP JUMPDEST SWAP4 POP POP PUSH1 0xC0 PUSH2 0x3A3 DUP8 DUP3 DUP9 ADD PUSH2 0x1CB JUMP JUMPDEST SWAP3 POP POP PUSH2 0x100 PUSH2 0x3B5 DUP8 DUP3 DUP9 ADD PUSH2 0x32D JUMP JUMPDEST SWAP2 POP POP SWAP3 SWAP6 SWAP2 SWAP5 POP SWAP3 POP JUMP JUMPDEST PUSH1 0x0 DUP2 ISZERO ISZERO SWAP1 POP SWAP2 SWAP1 POP JUMP JUMPDEST PUSH2 0x3D6 DUP2 PUSH2 0x3C1 JUMP JUMPDEST DUP3 MSTORE POP POP JUMP JUMPDEST PUSH1 0x0 PUSH1 0x20 DUP3 ADD SWAP1 POP PUSH2 0x3F1 PUSH1 0x0 DUP4 ADD DUP5 PUSH2 0x3CD JUMP JUMPDEST SWAP3 SWAP2 POP POP JUMP INVALID LOG2 PUSH5 0x6970667358 0x22 SLT KECCAK256 DELEGATECALL PUSH11 0x34340E15665208C82462B6 0x4F SLOAD GASLIMIT 0xE6 PUSH11 0xE12FB4C70A99C0E8266800 0x23 CHAINID NOT PUSH5 0x736F6C6343 STOP ADDMOD XOR STOP CALLER "},"methodIdentifiers":{"verifyProof(uint256[2],uint256[2][2],uint256[2],uint256[3])":"11479fea"}}}}}