{
  "_format": "hh-sol-artifact-1",
  "contractName": "TransactionRegistry",
  "sourceName": "contracts/TransactionRegistry.sol",
  "abi": [
    {
      "anonymous": false,
      "inputs": [
        {
          "indexed": true,
          "internalType": "bytes32",
          "name": "root",
          "type": "bytes32"
        },
        {
          "indexed": false,
          "internalType": "uint256",
          "name": "timestamp",
          "type": "uint256"
        }
      ],
      "name": "MerkleRootRegistered",
      "type": "event"
    },
    {
      "inputs": [],
      "name": "currentMerkleRoot",
      "outputs": [
        {
          "internalType": "bytes32",
          "name": "",
          "type": "bytes32"
        }
      ],
      "stateMutability": "view",
      "type": "function"
    },
    {
      "inputs": [
        {
          "internalType": "bytes32",
          "name": "_root",
          "type": "bytes32"
        }
      ],
      "name": "registerRoot",
      "outputs": [],
      "stateMutability": "nonpayable",
      "type": "function"
    }
  ],
  "bytecode": "0x608060405234801561001057600080fd5b506101b0806100206000396000f3fe608060405234801561001057600080fd5b50600436106100365760003560e01c806395d07edb1461003b5780639ea9719014610057575b600080fd5b610055600480360381019061005091906100d2565b610075565b005b61005f6100b7565b60405161006c9190610119565b60405180910390f35b80600081905550807feb7e96ba82cae6fc90d20d03f0bdf85ca1a24f4976ab9f9b38b8305cd4172ecd426040516100ac9190610134565b60405180910390a250565b60005481565b6000813590506100cc81610163565b92915050565b6000602082840312156100e457600080fd5b60006100f2848285016100bd565b91505092915050565b6101048161014f565b82525050565b61011381610159565b82525050565b600060208201905061012e60008301846100fb565b92915050565b6000602082019050610149600083018461010a565b92915050565b6000819050919050565b6000819050919050565b61016c8161014f565b811461017757600080fd5b5056fea26469706673582212203e338f1b63a08f67855c4f1f17741d5b088aae327ecfabc87240c69a5d3c796164736f6c63430008000033",
  "linkReferences": {},
  "deployedLinkReferences": {}
}